{
  "contractName": "PaymentRejector",
  "abi": [
    {
      "inputs": [
        {
          "name": "jurisdiction",
          "type": "address"
        }
      ],
      "payable": false,
      "stateMutability": "nonpayable",
      "type": "constructor"
    },
    {
      "constant": false,
      "inputs": [
        {
          "name": "newOwner",
          "type": "address"
        }
      ],
      "name": "relinquishOwnership",
      "outputs": [],
      "payable": false,
      "stateMutability": "nonpayable",
      "type": "function"
    },
    {
      "constant": false,
      "inputs": [
        {
          "name": "newKey",
          "type": "address"
        }
      ],
      "name": "setValidatorSigningKey",
      "outputs": [],
      "payable": false,
      "stateMutability": "nonpayable",
      "type": "function"
    },
    {
      "constant": false,
      "inputs": [
        {
          "name": "account",
          "type": "address"
        },
        {
          "name": "attributeTypeID",
          "type": "uint256"
        },
        {
          "name": "value",
          "type": "uint256"
        },
        {
          "name": "validatorFee",
          "type": "uint256"
        },
        {
          "name": "signature",
          "type": "bytes"
        }
      ],
      "name": "addAttributeFor",
      "outputs": [],
      "payable": true,
      "stateMutability": "payable",
      "type": "function"
    },
    {
      "constant": false,
      "inputs": [
        {
          "name": "account",
          "type": "address"
        },
        {
          "name": "attributeTypeID",
          "type": "uint256"
        }
      ],
      "name": "removeAttributeFor",
      "outputs": [],
      "payable": false,
      "stateMutability": "nonpayable",
      "type": "function"
    }
  ],
  "bytecode": "0x608060405234801561001057600080fd5b506040516020806104d6833981016040525160008054600160a060020a03909216600160a060020a0319909216919091179055610484806100526000396000f3006080604052600436106100615763ffffffff7c01000000000000000000000000000000000000000000000000000000006000350416632724a47781146100665780635b4dbe371461009657806381050c65146100c4578063fdf9101c14610138575b600080fd5b34801561007257600080fd5b5061009473ffffffffffffffffffffffffffffffffffffffff60043516610169565b005b3480156100a257600080fd5b5061009473ffffffffffffffffffffffffffffffffffffffff600435166101f5565b604080516020601f6084356004818101359283018490048402850184019095528184526100949473ffffffffffffffffffffffffffffffffffffffff813516946024803595604435956064359536959460a49490939101919081908401838280828437509497506102669650505050505050565b34801561014457600080fd5b5061009473ffffffffffffffffffffffffffffffffffffffff600435166024356103c4565b60008054604080517f2724a47700000000000000000000000000000000000000000000000000000000815273ffffffffffffffffffffffffffffffffffffffff858116600483015291519190921692632724a477926024808201939182900301818387803b1580156101da57600080fd5b505af11580156101ee573d6000803e3d6000fd5b5050505050565b60008054604080517ff2fde38b00000000000000000000000000000000000000000000000000000000815273ffffffffffffffffffffffffffffffffffffffff85811660048301529151919092169263f2fde38b926024808201939182900301818387803b1580156101da57600080fd5b6000809054906101000a900473ffffffffffffffffffffffffffffffffffffffff1673ffffffffffffffffffffffffffffffffffffffff166381050c653487878787876040518763ffffffff167c0100000000000000000000000000000000000000000000000000000000028152600401808673ffffffffffffffffffffffffffffffffffffffff1673ffffffffffffffffffffffffffffffffffffffff16815260200185815260200184815260200183815260200180602001828103825283818151815260200191508051906020019080838360005b8381101561035557818101518382015260200161033d565b50505050905090810190601f1680156103825780820380516001836020036101000a031916815260200191505b5096505050505050506000604051808303818588803b1580156103a457600080fd5b505af11580156103b8573d6000803e3d6000fd5b50505050505050505050565b60008054604080517ffdf9101c00000000000000000000000000000000000000000000000000000000815273ffffffffffffffffffffffffffffffffffffffff8681166004830152602482018690529151919092169263fdf9101c926044808201939182900301818387803b15801561043c57600080fd5b505af1158015610450573d6000803e3d6000fd5b5050505050505600a165627a7a72305820314fd849bfc16aa1eb516db58161892d3e0ce70209b154f539332b73dead437b0029",
  "source": "pragma solidity ^0.4.25;\n\nimport \"../../ExtendedJurisdiction.sol\";\n\n\n/**\n * @title A contract that will reject payments sent to it.\n */\ncontract PaymentRejector {\n  ExtendedJurisdiction private _jurisdiction;\n\n  constructor(address jurisdiction) public {\n    _jurisdiction = ExtendedJurisdiction(jurisdiction);\n  }\n\n  function relinquishOwnership(address newOwner) public {\n    _jurisdiction.transferOwnership(newOwner);\n  }\n\n  function setValidatorSigningKey(address newKey) public {\n    _jurisdiction.setValidatorSigningKey(newKey);\n  }\n\n  function addAttributeFor(\n    address account,\n    uint256 attributeTypeID,\n    uint256 value,\n    uint256 validatorFee,\n    bytes signature\n  ) public payable {\n    _jurisdiction.addAttributeFor.value(msg.value)(\n      account,\n      attributeTypeID,\n      value,\n      validatorFee,\n      signature\n    );\n  }\n\n  function removeAttributeFor(\n    address account,\n    uint256 attributeTypeID\n  ) public {\n    _jurisdiction.removeAttributeFor(\n      account,\n      attributeTypeID\n    );\n  }\n}",
  "sourcePath": "/Users/jretina/Programming/PROPSProject/tpl-contracts/contracts/mock/test/PaymentRejector.sol",
  "compiler": {
    "name": "solc",
    "version": "0.4.25+commit.59dbf8f1.Emscripten.clang"
  },
  "schemaVersion": "3.0.0-beta.1",
  "updatedAt": "2019-01-09T15:27:56.381Z"
}