{
  "contractName": "TPLBasicValidator",
  "abi": [
    {
      "inputs": [
        {
          "name": "registry",
          "type": "address"
        },
        {
          "name": "validAttributeTypeID",
          "type": "uint256"
        }
      ],
      "payable": false,
      "stateMutability": "nonpayable",
      "type": "constructor"
    },
    {
      "constant": true,
      "inputs": [],
      "name": "isValidator",
      "outputs": [
        {
          "name": "",
          "type": "bool"
        }
      ],
      "payable": false,
      "stateMutability": "view",
      "type": "function"
    },
    {
      "constant": true,
      "inputs": [
        {
          "name": "attributeTypeID",
          "type": "uint256"
        }
      ],
      "name": "canIssueAttributeType",
      "outputs": [
        {
          "name": "",
          "type": "bool"
        }
      ],
      "payable": false,
      "stateMutability": "view",
      "type": "function"
    },
    {
      "constant": true,
      "inputs": [
        {
          "name": "account",
          "type": "address"
        },
        {
          "name": "attributeTypeID",
          "type": "uint256"
        }
      ],
      "name": "canIssueAttribute",
      "outputs": [
        {
          "name": "",
          "type": "bool"
        },
        {
          "name": "",
          "type": "bytes1"
        }
      ],
      "payable": false,
      "stateMutability": "view",
      "type": "function"
    },
    {
      "constant": true,
      "inputs": [
        {
          "name": "account",
          "type": "address"
        },
        {
          "name": "attributeTypeID",
          "type": "uint256"
        }
      ],
      "name": "canRevokeAttribute",
      "outputs": [
        {
          "name": "",
          "type": "bool"
        },
        {
          "name": "",
          "type": "bytes1"
        }
      ],
      "payable": false,
      "stateMutability": "view",
      "type": "function"
    },
    {
      "constant": true,
      "inputs": [],
      "name": "getValidAttributeID",
      "outputs": [
        {
          "name": "",
          "type": "uint256"
        }
      ],
      "payable": false,
      "stateMutability": "view",
      "type": "function"
    },
    {
      "constant": true,
      "inputs": [],
      "name": "getJurisdiction",
      "outputs": [
        {
          "name": "",
          "type": "address"
        }
      ],
      "payable": false,
      "stateMutability": "view",
      "type": "function"
    }
  ],
  "bytecode": "0x608060405234801561001057600080fd5b5060405160408061086a83398101604052805160209091015160008054600160a060020a03909316600160a060020a031993841681179091556001805490931617909155600255610804806100666000396000f3006080604052600436106100775763ffffffff7c01000000000000000000000000000000000000000000000000000000006000350416631fa1087c811461007c578063330e9e3d146100ba57806399342c7c146100e3578063a20673f414610150578063b61ef75314610181578063eac5a01c14610199575b600080fd5b34801561008857600080fd5b506100916101c0565b6040805173ffffffffffffffffffffffffffffffffffffffff9092168252519081900360200190f35b3480156100c657600080fd5b506100cf6101dc565b604080519115158252519081900360200190f35b3480156100ef57600080fd5b5061011473ffffffffffffffffffffffffffffffffffffffff60043516602435610382565b6040805192151583527fff0000000000000000000000000000000000000000000000000000000000000090911660208301528051918290030190f35b34801561015c57600080fd5b5061011473ffffffffffffffffffffffffffffffffffffffff600435166024356104c8565b34801561018d57600080fd5b506100cf600435610714565b3480156101a557600080fd5b506101ae6107d2565b60408051918252519081900360200190f35b60015473ffffffffffffffffffffffffffffffffffffffff1690565b600080600080600160009054906101000a900473ffffffffffffffffffffffffffffffffffffffff1673ffffffffffffffffffffffffffffffffffffffff166397f3c8066040518163ffffffff167c0100000000000000000000000000000000000000000000000000000000028152600401602060405180830381600087803b15801561026857600080fd5b505af115801561027c573d6000803e3d6000fd5b505050506040513d602081101561029257600080fd5b50519250600091505b8282101561037757600154604080517fb5d8962700000000000000000000000000000000000000000000000000000000815260048101859052905173ffffffffffffffffffffffffffffffffffffffff9092169163b5d89627916024808201926020929091908290030181600087803b15801561031757600080fd5b505af115801561032b573d6000803e3d6000fd5b505050506040513d602081101561034157600080fd5b5051905073ffffffffffffffffffffffffffffffffffffffff811630141561036c576001935061037c565b60019091019061029b565b600093505b50505090565b600080826002541415156103bb5750600090507fa0000000000000000000000000000000000000000000000000000000000000006104c1565b60008054600254604080517f4b5f297a00000000000000000000000000000000000000000000000000000000815273ffffffffffffffffffffffffffffffffffffffff8981166004830152602482019390935290519190921692634b5f297a92604480820193602093909283900390910190829087803b15801561043e57600080fd5b505af1158015610452573d6000803e3d6000fd5b505050506040513d602081101561046857600080fd5b50511561049a5750600090507fb0000000000000000000000000000000000000000000000000000000000000006104c1565b50600190507f01000000000000000000000000000000000000000000000000000000000000005b9250929050565b600080600080846002541415156105055760007fa0000000000000000000000000000000000000000000000000000000000000009350935061070b565b60008054600254604080517f4b5f297a00000000000000000000000000000000000000000000000000000000815273ffffffffffffffffffffffffffffffffffffffff8b81166004830152602482019390935290519190921692634b5f297a92604480820193602093909283900390910190829087803b15801561058857600080fd5b505af115801561059c573d6000803e3d6000fd5b505050506040513d60208110156105b257600080fd5b505115156105e65760007fb0000000000000000000000000000000000000000000000000000000000000009350935061070b565b600154600254604080517f17cf31d800000000000000000000000000000000000000000000000000000000815273ffffffffffffffffffffffffffffffffffffffff8a811660048301526024820193909352815192909316926317cf31d892604480830193928290030181600087803b15801561066257600080fd5b505af1158015610676573d6000803e3d6000fd5b505050506040513d604081101561068c57600080fd5b508051602090910151909250905073ffffffffffffffffffffffffffffffffffffffff821630146106e35760007fc0000000000000000000000000000000000000000000000000000000000000009350935061070b565b60017f0100000000000000000000000000000000000000000000000000000000000000935093505b50509250929050565b6000816002541480156107cc5750600154600254604080517ff287f8fb00000000000000000000000000000000000000000000000000000000815230600482015260248101929092525173ffffffffffffffffffffffffffffffffffffffff9092169163f287f8fb916044808201926020929091908290030181600087803b15801561079f57600080fd5b505af11580156107b3573d6000803e3d6000fd5b505050506040513d60208110156107c957600080fd5b50515b92915050565b600254905600a165627a7a723058209fed0a5648db9affef03ebb9aa709b62249ab7d8d3debead3d2b99475e7ce0820029",
  "source": "pragma solidity ^0.4.25;\n\nimport \"./TPLBasicValidatorInterface.sol\";\nimport \"../../AttributeRegistryInterface.sol\";\nimport \"../../BasicJurisdictionInterface.sol\";\n\n\n/**\n * @title An instance of TPLBasicValidator, issue & revoke an attribute type.\n */\ncontract TPLBasicValidator is TPLBasicValidatorInterface {\n\n  // declare registry interface, used to request attributes from a jurisdiction\n  AttributeRegistryInterface internal _registry;\n\n  // declare registry interface, set to same address as the registry\n  BasicJurisdictionInterface internal _jurisdiction;\n\n  // declare attribute ID required in order to receive transferred tokens\n  uint256 internal _validAttributeTypeID;\n\n  /**\n  * @notice The constructor function, with an associated attribute registry at\n  * `registry` and an assignable attribute type with ID `validAttributeTypeID`.\n  * @param registry address The account of the associated attribute registry.  \n  * @param validAttributeTypeID uint256 The ID of the required attribute type.\n  * @dev Note that it may be appropriate to require that the referenced\n  * attribute registry supports the correct interface via EIP-165.\n  */\n  constructor(\n    AttributeRegistryInterface registry,\n    uint256 validAttributeTypeID\n  ) public {\n    _registry = AttributeRegistryInterface(registry);\n    _jurisdiction = BasicJurisdictionInterface(registry);\n    _validAttributeTypeID = validAttributeTypeID;\n  }\n\n  /**\n   * @notice Check if contract is assigned as a validator on the jurisdiction.\n   * @return True if validator is assigned, false otherwise.\n   */  \n  function isValidator() external view returns (bool) {\n    uint256 totalValidators = _jurisdiction.countValidators();\n    \n    for (uint256 i = 0; i < totalValidators; i++) {\n      address validator = _jurisdiction.getValidator(i);\n      if (validator == address(this)) {\n        return true;\n      }\n    }\n\n    return false;\n  }\n\n  /**\n   * @notice Check if the validator is approved to issue attributes of the type\n   * with ID `attributeTypeID` on the jurisdiction.\n   * @param attributeTypeID uint256 The ID of the attribute type in question.\n   * @return True if validator is approved to issue attributes of given type.\n   */  \n  function canIssueAttributeType(\n    uint256 attributeTypeID\n  ) external view returns (bool) {\n    return (\n      _validAttributeTypeID == attributeTypeID &&\n      _jurisdiction.canIssueAttributeType(address(this), _validAttributeTypeID)\n    );\n  }\n\n  /**\n   * @notice Check if the validator is approved to issue an attribute of the\n   * type with ID `attributeTypeID` to account `account` on the jurisdiction.\n   * @param account address The account to check for issuing the attribute to.\n   * @param attributeTypeID uint256 The ID of the attribute type in question.\n   * @return Bool indicating if attribute is issuable & byte with status code.\n   * @dev This function could definitely use additional checks and error codes.\n   */  \n  function canIssueAttribute(\n    address account,\n    uint256 attributeTypeID\n  ) external view returns (bool, bytes1) {\n    // Only the predefined attribute type can be issued by this validator.\n    if (_validAttributeTypeID != attributeTypeID) {\n      return (false, hex\"A0\");\n    }\n\n    // Attributes can't be issued if one already exists on the given account.\n    if (_registry.hasAttribute(account, _validAttributeTypeID)) {\n      return (false, hex\"B0\");\n    }\n\n    return (true, hex\"01\");\n  }\n\n  /**\n   * @notice Check if the validator is approved to revoke an attribute of the\n   * type with ID `attributeTypeID` from account `account` on the jurisdiction.\n   * @param account address The checked account for revoking the attribute from.\n   * @param attributeTypeID uint256 The ID of the attribute type in question.\n   * @return Bool indicating if attribute is revocable & byte with status code.\n   * @dev This function could definitely use additional checks and error codes.\n   */  \n  function canRevokeAttribute(\n    address account,\n    uint256 attributeTypeID\n  ) external view returns (bool, bytes1) {\n    // Only the predefined attribute type can be revoked by this validator.\n    if (_validAttributeTypeID != attributeTypeID) {\n      return (false, hex\"A0\");\n    }\n\n    // Attributes can't be revoked if they don't exist on the given account.\n    if (!_registry.hasAttribute(account, _validAttributeTypeID)) {\n      return (false, hex\"B0\");\n    }\n\n    // Only the issuing validator can revoke an attribute.\n    (address validator, bool unused) = _jurisdiction.getAttributeValidator(\n      account,\n      _validAttributeTypeID\n    );\n    unused;\n\n    if (validator != address(this)) {\n      return (false, hex\"C0\");\n    }    \n\n    return (true, hex\"01\");\n  }\n\n  /**\n   * @notice Get the ID of the attribute type required to hold tokens.\n   * @return The ID of the required attribute type.\n   */\n  function getValidAttributeID() external view returns (uint256) {\n    return _validAttributeTypeID;\n  }\n\n  /**\n   * @notice Get account of utilized jurisdiction and associated attribute\n   * registry managed by the jurisdiction.\n   * @return The account of the jurisdiction.\n   */\n  function getJurisdiction() external view returns (address) {\n    return address(_jurisdiction);\n  }\n\n  /**\n   * @notice Issue an attribute of the type with the default ID to account\n   * `account` on the jurisdiction. Values are left at zero.\n   * @param account address The account to issue the attribute to.\n   * @return True if attribute has been successfully issued, false otherwise.\n   */  \n  function _issueAttribute(address account) internal returns (bool) {\n    _jurisdiction.issueAttribute(account, _validAttributeTypeID, 0);\n    return true;\n  }\n\n  /**\n   * @notice Revoke an attribute of the type with ID `attributeTypeID` from\n   * account `account` on the jurisdiction.\n   * @param account address The account to revoke the attribute from.\n   * @return True if attribute has been successfully revoked, false otherwise.\n   */  \n  function _revokeAttribute(address account) internal returns (bool) {\n    _jurisdiction.revokeAttribute(account, _validAttributeTypeID);\n    return true;\n  }\n}",
  "sourcePath": "/Users/jretina/Programming/PROPSProject/tpl-contracts/contracts/examples/validator/TPLBasicValidator.sol",
  "compiler": {
    "name": "solc",
    "version": "0.4.25+commit.59dbf8f1.Emscripten.clang"
  },
  "schemaVersion": "3.0.0-beta.1",
  "updatedAt": "2019-01-09T15:27:56.369Z"
}