{
  "contractName": "TPLBasicValidatorInstance",
  "abi": [
    {
      "constant": true,
      "inputs": [],
      "name": "getJurisdiction",
      "outputs": [
        {
          "name": "",
          "type": "address"
        }
      ],
      "payable": false,
      "stateMutability": "view",
      "type": "function"
    },
    {
      "constant": true,
      "inputs": [],
      "name": "isValidator",
      "outputs": [
        {
          "name": "",
          "type": "bool"
        }
      ],
      "payable": false,
      "stateMutability": "view",
      "type": "function"
    },
    {
      "constant": true,
      "inputs": [
        {
          "name": "account",
          "type": "address"
        },
        {
          "name": "attributeTypeID",
          "type": "uint256"
        }
      ],
      "name": "canIssueAttribute",
      "outputs": [
        {
          "name": "",
          "type": "bool"
        },
        {
          "name": "",
          "type": "bytes1"
        }
      ],
      "payable": false,
      "stateMutability": "view",
      "type": "function"
    },
    {
      "constant": true,
      "inputs": [
        {
          "name": "account",
          "type": "address"
        },
        {
          "name": "attributeTypeID",
          "type": "uint256"
        }
      ],
      "name": "canRevokeAttribute",
      "outputs": [
        {
          "name": "",
          "type": "bool"
        },
        {
          "name": "",
          "type": "bytes1"
        }
      ],
      "payable": false,
      "stateMutability": "view",
      "type": "function"
    },
    {
      "constant": true,
      "inputs": [
        {
          "name": "attributeTypeID",
          "type": "uint256"
        }
      ],
      "name": "canIssueAttributeType",
      "outputs": [
        {
          "name": "",
          "type": "bool"
        }
      ],
      "payable": false,
      "stateMutability": "view",
      "type": "function"
    },
    {
      "constant": true,
      "inputs": [],
      "name": "getValidAttributeID",
      "outputs": [
        {
          "name": "",
          "type": "uint256"
        }
      ],
      "payable": false,
      "stateMutability": "view",
      "type": "function"
    },
    {
      "inputs": [
        {
          "name": "registry",
          "type": "address"
        },
        {
          "name": "validAttributeTypeID",
          "type": "uint256"
        }
      ],
      "payable": false,
      "stateMutability": "nonpayable",
      "type": "constructor"
    },
    {
      "constant": false,
      "inputs": [],
      "name": "issueAttribute",
      "outputs": [],
      "payable": false,
      "stateMutability": "nonpayable",
      "type": "function"
    },
    {
      "constant": false,
      "inputs": [],
      "name": "revokeAttribute",
      "outputs": [],
      "payable": false,
      "stateMutability": "nonpayable",
      "type": "function"
    }
  ],
  "bytecode": "0x608060405234801561001057600080fd5b506040516040806109f683398101604052805160209091015160008054600160a060020a03909316600160a060020a031993841681179091556001805490931617909155600255610990806100666000396000f30060806040526004361061008d5763ffffffff7c01000000000000000000000000000000000000000000000000000000006000350416631fa1087c811461009257806328efdc44146100d0578063330e9e3d146100e757806340e2687e1461011057806399342c7c14610125578063a20673f414610192578063b61ef753146101c3578063eac5a01c146101db575b600080fd5b34801561009e57600080fd5b506100a7610202565b6040805173ffffffffffffffffffffffffffffffffffffffff9092168252519081900360200190f35b3480156100dc57600080fd5b506100e561021e565b005b3480156100f357600080fd5b506100fc610234565b604080519115158252519081900360200190f35b34801561011c57600080fd5b506100e56103da565b34801561013157600080fd5b5061015673ffffffffffffffffffffffffffffffffffffffff600435166024356103e3565b6040805192151583527fff0000000000000000000000000000000000000000000000000000000000000090911660208301528051918290030190f35b34801561019e57600080fd5b5061015673ffffffffffffffffffffffffffffffffffffffff60043516602435610529565b3480156101cf57600080fd5b506100fc600435610775565b3480156101e757600080fd5b506101f0610833565b60408051918252519081900360200190f35b60015473ffffffffffffffffffffffffffffffffffffffff1690565b61022733610839565b151561023257600080fd5b565b600080600080600160009054906101000a900473ffffffffffffffffffffffffffffffffffffffff1673ffffffffffffffffffffffffffffffffffffffff166397f3c8066040518163ffffffff167c0100000000000000000000000000000000000000000000000000000000028152600401602060405180830381600087803b1580156102c057600080fd5b505af11580156102d4573d6000803e3d6000fd5b505050506040513d60208110156102ea57600080fd5b50519250600091505b828210156103cf57600154604080517fb5d8962700000000000000000000000000000000000000000000000000000000815260048101859052905173ffffffffffffffffffffffffffffffffffffffff9092169163b5d89627916024808201926020929091908290030181600087803b15801561036f57600080fd5b505af1158015610383573d6000803e3d6000fd5b505050506040513d602081101561039957600080fd5b5051905073ffffffffffffffffffffffffffffffffffffffff81163014156103c457600193506103d4565b6001909101906102f3565b600093505b50505090565b610227336108e2565b6000808260025414151561041c5750600090507fa000000000000000000000000000000000000000000000000000000000000000610522565b60008054600254604080517f4b5f297a00000000000000000000000000000000000000000000000000000000815273ffffffffffffffffffffffffffffffffffffffff8981166004830152602482019390935290519190921692634b5f297a92604480820193602093909283900390910190829087803b15801561049f57600080fd5b505af11580156104b3573d6000803e3d6000fd5b505050506040513d60208110156104c957600080fd5b5051156104fb5750600090507fb000000000000000000000000000000000000000000000000000000000000000610522565b50600190507f01000000000000000000000000000000000000000000000000000000000000005b9250929050565b600080600080846002541415156105665760007fa0000000000000000000000000000000000000000000000000000000000000009350935061076c565b60008054600254604080517f4b5f297a00000000000000000000000000000000000000000000000000000000815273ffffffffffffffffffffffffffffffffffffffff8b81166004830152602482019390935290519190921692634b5f297a92604480820193602093909283900390910190829087803b1580156105e957600080fd5b505af11580156105fd573d6000803e3d6000fd5b505050506040513d602081101561061357600080fd5b505115156106475760007fb0000000000000000000000000000000000000000000000000000000000000009350935061076c565b600154600254604080517f17cf31d800000000000000000000000000000000000000000000000000000000815273ffffffffffffffffffffffffffffffffffffffff8a811660048301526024820193909352815192909316926317cf31d892604480830193928290030181600087803b1580156106c357600080fd5b505af11580156106d7573d6000803e3d6000fd5b505050506040513d60408110156106ed57600080fd5b508051602090910151909250905073ffffffffffffffffffffffffffffffffffffffff821630146107445760007fc0000000000000000000000000000000000000000000000000000000000000009350935061076c565b60017f0100000000000000000000000000000000000000000000000000000000000000935093505b50509250929050565b60008160025414801561082d5750600154600254604080517ff287f8fb00000000000000000000000000000000000000000000000000000000815230600482015260248101929092525173ffffffffffffffffffffffffffffffffffffffff9092169163f287f8fb916044808201926020929091908290030181600087803b15801561080057600080fd5b505af1158015610814573d6000803e3d6000fd5b505050506040513d602081101561082a57600080fd5b50515b92915050565b60025490565b600154600254604080517f50135c3a00000000000000000000000000000000000000000000000000000000815273ffffffffffffffffffffffffffffffffffffffff858116600483015260248201939093526000604482018190529151919392909216916350135c3a916064808301928692919082900301818387803b1580156108c257600080fd5b505af11580156108d6573d6000803e3d6000fd5b50600195945050505050565b600154600254604080517ff9292ffb00000000000000000000000000000000000000000000000000000000815273ffffffffffffffffffffffffffffffffffffffff858116600483015260248201939093529051600093929092169163f9292ffb91604480820192869290919082900301818387803b1580156108c257600080fd00a165627a7a7230582059aab5590e6c1de59e5939bc64eab743424e1ba121d6f24fa8aa8caf3d9c41090029",
  "source": "pragma solidity ^0.4.25;\n\nimport \"../examples/validator/TPLBasicValidator.sol\";\nimport \"../AttributeRegistryInterface.sol\";\n\n\n/**\n * @title An instance of TPLBasicValidator with external functions to add and\n * revoke a given attribute.\n */\ncontract TPLBasicValidatorInstance is TPLBasicValidator {\n\n  /**\n  * @notice The constructor function, with an associated attribute registry at\n  * `registry` and an assignable attribute type with ID `validAttributeTypeID`.\n  * @param registry address The account of the associated attribute registry.  \n  * @param validAttributeTypeID uint256 The ID of the required attribute type.\n  * @dev Note that it may be appropriate to require that the referenced\n  * attribute registry supports the correct interface via EIP-165.\n  */\n  constructor(\n    AttributeRegistryInterface registry,\n    uint256 validAttributeTypeID\n  ) public TPLBasicValidator(registry, validAttributeTypeID) {\n    registry; // no-empty-blocks\n  }\n\n  /**\n   * @notice Issue an attribute of the type with the default ID to `msg.sender`\n   * on the jurisdiction. Values are left at zero and the method may be called\n   * by anyone.\n   */  \n  function issueAttribute() external {\n    require(_issueAttribute(msg.sender));\n  }\n\n  /**\n   * @notice Revoke an attribute from the type with the default ID from\n   * `msg.sender` on the jurisdiction. This method may be called by anyone.\n   */\n  function revokeAttribute() external {\n    require(_revokeAttribute(msg.sender));\n  }\n}",
  "sourcePath": "/Users/jretina/Programming/PROPSProject/tpl-contracts/contracts/mock/TPLBasicValidatorInstance.sol",
  "compiler": {
    "name": "solc",
    "version": "0.4.25+commit.59dbf8f1.Emscripten.clang"
  },
  "schemaVersion": "3.0.0-beta.1",
  "updatedAt": "2019-01-09T15:27:56.370Z"
}