{
  "contractName": "TPLERC20PermissionedInstance",
  "abi": [
    {
      "constant": false,
      "inputs": [
        {
          "name": "spender",
          "type": "address"
        },
        {
          "name": "value",
          "type": "uint256"
        }
      ],
      "name": "approve",
      "outputs": [
        {
          "name": "",
          "type": "bool"
        }
      ],
      "payable": false,
      "stateMutability": "nonpayable",
      "type": "function"
    },
    {
      "constant": true,
      "inputs": [],
      "name": "totalSupply",
      "outputs": [
        {
          "name": "",
          "type": "uint256"
        }
      ],
      "payable": false,
      "stateMutability": "view",
      "type": "function"
    },
    {
      "constant": false,
      "inputs": [
        {
          "name": "from",
          "type": "address"
        },
        {
          "name": "to",
          "type": "address"
        },
        {
          "name": "value",
          "type": "uint256"
        }
      ],
      "name": "transferFrom",
      "outputs": [
        {
          "name": "",
          "type": "bool"
        }
      ],
      "payable": false,
      "stateMutability": "nonpayable",
      "type": "function"
    },
    {
      "constant": false,
      "inputs": [
        {
          "name": "spender",
          "type": "address"
        },
        {
          "name": "addedValue",
          "type": "uint256"
        }
      ],
      "name": "increaseAllowance",
      "outputs": [
        {
          "name": "",
          "type": "bool"
        }
      ],
      "payable": false,
      "stateMutability": "nonpayable",
      "type": "function"
    },
    {
      "constant": true,
      "inputs": [],
      "name": "getMaximumOwnersAttributeTypeID",
      "outputs": [
        {
          "name": "",
          "type": "uint256"
        }
      ],
      "payable": false,
      "stateMutability": "view",
      "type": "function"
    },
    {
      "constant": true,
      "inputs": [],
      "name": "transfersPaused",
      "outputs": [
        {
          "name": "",
          "type": "bool"
        }
      ],
      "payable": false,
      "stateMutability": "view",
      "type": "function"
    },
    {
      "constant": true,
      "inputs": [],
      "name": "getRegistry",
      "outputs": [
        {
          "name": "",
          "type": "address"
        }
      ],
      "payable": false,
      "stateMutability": "view",
      "type": "function"
    },
    {
      "constant": true,
      "inputs": [],
      "name": "getValidOwnerAttributeTypeID",
      "outputs": [
        {
          "name": "",
          "type": "uint256"
        }
      ],
      "payable": false,
      "stateMutability": "view",
      "type": "function"
    },
    {
      "constant": true,
      "inputs": [],
      "name": "getValidOperatorAttributeTypeID",
      "outputs": [
        {
          "name": "",
          "type": "uint256"
        }
      ],
      "payable": false,
      "stateMutability": "view",
      "type": "function"
    },
    {
      "constant": true,
      "inputs": [
        {
          "name": "owner",
          "type": "address"
        }
      ],
      "name": "balanceOf",
      "outputs": [
        {
          "name": "",
          "type": "uint256"
        }
      ],
      "payable": false,
      "stateMutability": "view",
      "type": "function"
    },
    {
      "constant": false,
      "inputs": [],
      "name": "renounceOwnership",
      "outputs": [],
      "payable": false,
      "stateMutability": "nonpayable",
      "type": "function"
    },
    {
      "constant": true,
      "inputs": [],
      "name": "owner",
      "outputs": [
        {
          "name": "",
          "type": "address"
        }
      ],
      "payable": false,
      "stateMutability": "view",
      "type": "function"
    },
    {
      "constant": true,
      "inputs": [],
      "name": "isOwner",
      "outputs": [
        {
          "name": "",
          "type": "bool"
        }
      ],
      "payable": false,
      "stateMutability": "view",
      "type": "function"
    },
    {
      "constant": false,
      "inputs": [
        {
          "name": "spender",
          "type": "address"
        },
        {
          "name": "subtractedValue",
          "type": "uint256"
        }
      ],
      "name": "decreaseAllowance",
      "outputs": [
        {
          "name": "",
          "type": "bool"
        }
      ],
      "payable": false,
      "stateMutability": "nonpayable",
      "type": "function"
    },
    {
      "constant": true,
      "inputs": [],
      "name": "getOwnershipLimitAttributeTypeID",
      "outputs": [
        {
          "name": "",
          "type": "uint256"
        }
      ],
      "payable": false,
      "stateMutability": "view",
      "type": "function"
    },
    {
      "constant": false,
      "inputs": [
        {
          "name": "to",
          "type": "address"
        },
        {
          "name": "value",
          "type": "uint256"
        }
      ],
      "name": "transfer",
      "outputs": [
        {
          "name": "",
          "type": "bool"
        }
      ],
      "payable": false,
      "stateMutability": "nonpayable",
      "type": "function"
    },
    {
      "constant": true,
      "inputs": [
        {
          "name": "to",
          "type": "address"
        },
        {
          "name": "value",
          "type": "uint256"
        }
      ],
      "name": "canTransfer",
      "outputs": [
        {
          "name": "",
          "type": "bool"
        },
        {
          "name": "",
          "type": "bytes1"
        }
      ],
      "payable": false,
      "stateMutability": "view",
      "type": "function"
    },
    {
      "constant": true,
      "inputs": [],
      "name": "getTotalOwners",
      "outputs": [
        {
          "name": "",
          "type": "uint256"
        }
      ],
      "payable": false,
      "stateMutability": "view",
      "type": "function"
    },
    {
      "constant": true,
      "inputs": [
        {
          "name": "owner",
          "type": "address"
        },
        {
          "name": "spender",
          "type": "address"
        }
      ],
      "name": "allowance",
      "outputs": [
        {
          "name": "",
          "type": "uint256"
        }
      ],
      "payable": false,
      "stateMutability": "view",
      "type": "function"
    },
    {
      "constant": false,
      "inputs": [
        {
          "name": "newOwner",
          "type": "address"
        }
      ],
      "name": "transferOwnership",
      "outputs": [],
      "payable": false,
      "stateMutability": "nonpayable",
      "type": "function"
    },
    {
      "constant": true,
      "inputs": [
        {
          "name": "from",
          "type": "address"
        },
        {
          "name": "to",
          "type": "address"
        },
        {
          "name": "value",
          "type": "uint256"
        }
      ],
      "name": "canTransferFrom",
      "outputs": [
        {
          "name": "",
          "type": "bool"
        },
        {
          "name": "",
          "type": "bytes1"
        }
      ],
      "payable": false,
      "stateMutability": "view",
      "type": "function"
    },
    {
      "inputs": [
        {
          "name": "registry",
          "type": "address"
        },
        {
          "name": "validOwnerAttributeTypeID",
          "type": "uint256"
        },
        {
          "name": "validOperatorAttributeTypeID",
          "type": "uint256"
        },
        {
          "name": "maximumOwnersAttributeTypeID",
          "type": "uint256"
        },
        {
          "name": "ownershipLimitAttributeTypeID",
          "type": "uint256"
        },
        {
          "name": "transfersPausedAttributeTypeID",
          "type": "uint256"
        }
      ],
      "payable": false,
      "stateMutability": "nonpayable",
      "type": "constructor"
    },
    {
      "anonymous": false,
      "inputs": [
        {
          "indexed": true,
          "name": "previousOwner",
          "type": "address"
        },
        {
          "indexed": true,
          "name": "newOwner",
          "type": "address"
        }
      ],
      "name": "OwnershipTransferred",
      "type": "event"
    },
    {
      "anonymous": false,
      "inputs": [
        {
          "indexed": true,
          "name": "from",
          "type": "address"
        },
        {
          "indexed": true,
          "name": "to",
          "type": "address"
        },
        {
          "indexed": false,
          "name": "value",
          "type": "uint256"
        }
      ],
      "name": "Transfer",
      "type": "event"
    },
    {
      "anonymous": false,
      "inputs": [
        {
          "indexed": true,
          "name": "owner",
          "type": "address"
        },
        {
          "indexed": true,
          "name": "spender",
          "type": "address"
        },
        {
          "indexed": false,
          "name": "value",
          "type": "uint256"
        }
      ],
      "name": "Approval",
      "type": "event"
    },
    {
      "constant": false,
      "inputs": [
        {
          "name": "account",
          "type": "address"
        },
        {
          "name": "value",
          "type": "uint256"
        }
      ],
      "name": "mint",
      "outputs": [],
      "payable": false,
      "stateMutability": "nonpayable",
      "type": "function"
    },
    {
      "constant": false,
      "inputs": [
        {
          "name": "account",
          "type": "address"
        },
        {
          "name": "value",
          "type": "uint256"
        }
      ],
      "name": "burn",
      "outputs": [],
      "payable": false,
      "stateMutability": "nonpayable",
      "type": "function"
    },
    {
      "constant": false,
      "inputs": [
        {
          "name": "account",
          "type": "address"
        },
        {
          "name": "value",
          "type": "uint256"
        }
      ],
      "name": "burnFrom",
      "outputs": [],
      "payable": false,
      "stateMutability": "nonpayable",
      "type": "function"
    }
  ],
  "bytecode": "0x608060405234801561001057600080fd5b5060405160c080611dcb83398101604081815282516020840151918401516060850151608086015160a09096015160038054600160a060020a03808716600160a060020a03199283161790925560048790556005859055600684905560078990556008839055600a805490911633179081905594979596939592949293919216906000907f8be0079c531659141344cd1fd0a4f28419497f9722a3daafe3b4186f6b6457e0908290a3505050505050611cfd806100ce6000396000f30060806040526004361061013d5763ffffffff7c0100000000000000000000000000000000000000000000000000000000600035041663095ea7b3811461014257806318160ddd1461017a57806323b872dd146101a157806339509351146101cb57806340c10f19146101ef57806343d02634146102155780634563f30a1461022a5780635ab1bd531461023f57806366f0401114610270578063691fa94b1461028557806370a082311461029a578063715018a6146102bb57806379cc6790146102d05780638da5cb5b146102f45780638f32d59b146103095780639dc29fac1461031e578063a457c2d714610342578063a69583bd14610366578063a9059cbb1461037b578063d45e09c11461039f578063db23f9f3146103ff578063dd62ed3e14610414578063f2fde38b1461043b578063f37d11cc1461045c575b600080fd5b34801561014e57600080fd5b50610166600160a060020a0360043516602435610486565b604080519115158252519081900360200190f35b34801561018657600080fd5b5061018f610504565b60408051918252519081900360200190f35b3480156101ad57600080fd5b50610166600160a060020a036004358116906024351660443561050a565b3480156101d757600080fd5b50610166600160a060020a0360043516602435610632565b3480156101fb57600080fd5b50610213600160a060020a03600435166024356106e2565b005b34801561022157600080fd5b5061018f610703565b34801561023657600080fd5b50610166610709565b34801561024b57600080fd5b50610254610797565b60408051600160a060020a039092168252519081900360200190f35b34801561027c57600080fd5b5061018f6107a6565b34801561029157600080fd5b5061018f6107ac565b3480156102a657600080fd5b5061018f600160a060020a03600435166107b2565b3480156102c757600080fd5b506102136107cd565b3480156102dc57600080fd5b50610213600160a060020a0360043516602435610837565b34801561030057600080fd5b50610254610841565b34801561031557600080fd5b50610166610850565b34801561032a57600080fd5b50610213600160a060020a0360043516602435610861565b34801561034e57600080fd5b50610166600160a060020a036004351660243561087e565b34801561037257600080fd5b5061018f6108c9565b34801561038757600080fd5b50610166600160a060020a03600435166024356108cf565b3480156103ab57600080fd5b506103c3600160a060020a03600435166024356108ed565b6040805192151583527fff0000000000000000000000000000000000000000000000000000000000000090911660208301528051918290030190f35b34801561040b57600080fd5b5061018f610906565b34801561042057600080fd5b5061018f600160a060020a036004358116906024351661090c565b34801561044757600080fd5b50610213600160a060020a0360043516610937565b34801561046857600080fd5b506103c3600160a060020a0360043581169060243516604435610956565b6000600160a060020a038316151561049d57600080fd5b336000818152600160209081526040808320600160a060020a03881680855290835292819020869055805186815290519293927f8c5be1e5ebec7d5bd14f71427d1e84f3dd0314c0f7b2291e5b200ac8c7c3b925929181900390910190a350600192915050565b60025490565b60035460055460408051600080516020611cb28339815191528152336004820152602481019290925251600092600160a060020a031691634b5f297a91604480830192602092919082900301818787803b15801561056757600080fd5b505af115801561057b573d6000803e3d6000fd5b505050506040513d602081101561059157600080fd5b505115156106145760408051600080516020611c92833981519152815260206004820152602b60248201527f5472616e73666572206661696c6564202d206f70657261746f72206973206e6f60448201527f7420617070726f7665642e000000000000000000000000000000000000000000606482015290519081900360840190fd5b61061f848484610a69565b61062a848484610fbc565b949350505050565b6000600160a060020a038316151561064957600080fd5b336000908152600160209081526040808320600160a060020a038716845290915290205461067d908363ffffffff61105916565b336000818152600160209081526040808320600160a060020a0389168085529083529281902085905580519485525191937f8c5be1e5ebec7d5bd14f71427d1e84f3dd0314c0f7b2291e5b200ac8c7c3b925929081900390910190a350600192915050565b6106ea610850565b15156106f557600080fd5b6106ff828261106b565b5050565b60065490565b60035460085460408051600080516020611cb28339815191528152306004820152602481019290925251600092600160a060020a031691634b5f297a91604480830192602092919082900301818787803b15801561076657600080fd5b505af115801561077a573d6000803e3d6000fd5b505050506040513d602081101561079057600080fd5b5051905090565b600354600160a060020a031690565b60045490565b60055490565b600160a060020a031660009081526020819052604090205490565b6107d5610850565b15156107e057600080fd5b600a54604051600091600160a060020a0316907f8be0079c531659141344cd1fd0a4f28419497f9722a3daafe3b4186f6b6457e0908390a3600a805473ffffffffffffffffffffffffffffffffffffffff19169055565b6106ff828261142a565b600a54600160a060020a031690565b600a54600160a060020a0316331490565b610869610850565b151561087457600080fd5b6106ff82826114b8565b6000600160a060020a038316151561089557600080fd5b336000908152600160209081526040808320600160a060020a038716845290915290205461067d908363ffffffff61150816565b60075490565b60006108dc338484610a69565b6108e6838361151f565b9392505050565b6000806108fb338585611535565b915091509250929050565b60095490565b600160a060020a03918216600090815260016020908152604080832093909416825291909152205490565b61093f610850565b151561094a57600080fd5b610953816119a9565b50565b60035460055460408051600080516020611cb283398151915281523360048201526024810192909252516000928392600160a060020a0390911691634b5f297a9160448082019260209290919082900301818787803b1580156109b857600080fd5b505af11580156109cc573d6000803e3d6000fd5b505050506040513d60208110156109e257600080fd5b50511515610a155750600090507f5800000000000000000000000000000000000000000000000000000000000000610a61565b82610a20863361090c565b1015610a515750600090507f5300000000000000000000000000000000000000000000000000000000000000610a61565b610a5c858585611535565b915091505b935093915050565b6000806000610a76610709565b15610a8057600080fd5b6003546004805460408051600080516020611cb28339815191528152600160a060020a038b8116948201949094526024810192909252519190921691634b5f297a9160448083019260209291908290030181600087803b158015610ae357600080fd5b505af1158015610af7573d6000803e3d6000fd5b505050506040513d6020811015610b0d57600080fd5b50511515610b905760408051600080516020611c92833981519152815260206004820152602960248201527f5472616e73666572206661696c6564202d2073656e646572206973206e6f742060448201527f617070726f7665642e0000000000000000000000000000000000000000000000606482015290519081900360840190fd5b6003546004805460408051600080516020611cb28339815191528152600160a060020a038a8116948201949094526024810192909252519190921691634b5f297a9160448083019260209291908290030181600087803b158015610bf357600080fd5b505af1158015610c07573d6000803e3d6000fd5b505050506040513d6020811015610c1d57600080fd5b50511515610ca05760408051600080516020611c92833981519152815260206004820152602c60248201527f5472616e73666572206661696c6564202d20726563697069656e74206973206e60448201527f6f7420617070726f7665642e0000000000000000000000000000000000000000606482015290519081900360840190fd5b6000841115610fb457610cb2856107b2565b925085600160a060020a031685600160a060020a03161480610d7e5750600354600754604080517fcd6c8343000000000000000000000000000000000000000000000000000000008152306004820152602481019290925251600160a060020a039092169163cd6c8343916044808201926020929091908290030181600087803b158015610d3f57600080fd5b505af1158015610d53573d6000803e3d6000fd5b505050506040513d6020811015610d6957600080fd5b5051610d7b848663ffffffff61105916565b11155b1515610e255760408051600080516020611c92833981519152815260206004820152604260248201527f5472616e73666572206661696c6564202d20726563697069656e742062616c6160448201527f6e63652063616e6e6f7420657863656564206f776e657273686970206c696d6960648201527f742e000000000000000000000000000000000000000000000000000000000000608482015290519081900360a40190fd5b600354600654604080517fcd6c8343000000000000000000000000000000000000000000000000000000008152306004820152602481019290925251600160a060020a039092169163cd6c8343916044808201926020929091908290030181600087803b158015610e9557600080fd5b505af1158015610ea9573d6000803e3d6000fd5b505050506040513d6020811015610ebf57600080fd5b50519150610ecc866107b2565b9050816009541080610ede5750600083115b80610ef4575081600954148015610ef457508381145b1515610f755760408051600080516020611c92833981519152815260206004820152603b60248201527f5472616e73666572206661696c6564202d206d6178696d756d206e756d62657260448201527f206f6620746f6b656e20686f6c646572732065786365656465642e0000000000606482015290519081900360840190fd5b83811415610f9557600954610f9190600163ffffffff61150816565b6009555b821515610fb457600954610fb090600163ffffffff61105916565b6009555b505050505050565b600160a060020a0383166000908152600160209081526040808320338452909152812054821115610fec57600080fd5b600160a060020a0384166000908152600160209081526040808320338452909152902054611020908363ffffffff61150816565b600160a060020a038516600090815260016020908152604080832033845290915290205561104f848484611a27565b5060019392505050565b6000828201838110156108e657600080fd5b6000611075610709565b1561107f57600080fd5b6003546004805460408051600080516020611cb28339815191528152600160a060020a03888116948201949094526024810192909252519190921691634b5f297a9160448083019260209291908290030181600087803b1580156110e257600080fd5b505af11580156110f6573d6000803e3d6000fd5b505050506040513d602081101561110c57600080fd5b5051151561118f5760408051600080516020611c92833981519152815260206004820152602860248201527f4d696e74206661696c6564202d20726563697069656e74206973206e6f74206160448201527f7070726f7665642e000000000000000000000000000000000000000000000000606482015290519081900360840190fd5b600082111561141b576111a1836107b2565b9050600081118061124e5750600354600654604080517fcd6c8343000000000000000000000000000000000000000000000000000000008152306004820152602481019290925251600160a060020a039092169163cd6c8343916044808201926020929091908290030181600087803b15801561121d57600080fd5b505af1158015611231573d6000803e3d6000fd5b505050506040513d602081101561124757600080fd5b5051600954105b15156112cf5760408051600080516020611c92833981519152815260206004820152603760248201527f4d696e74206661696c6564202d206d6178696d756d206e756d626572206f662060448201527f746f6b656e20686f6c646572732065786365656465642e000000000000000000606482015290519081900360840190fd5b600354600754604080517fcd6c8343000000000000000000000000000000000000000000000000000000008152306004820152602481019290925251600160a060020a039092169163cd6c8343916044808201926020929091908290030181600087803b15801561133f57600080fd5b505af1158015611353573d6000803e3d6000fd5b505050506040513d602081101561136957600080fd5b505161137b828463ffffffff61105916565b11156113fc5760408051600080516020611c92833981519152815260206004820152603860248201527f4d696e74206661696c6564202d206d6178696d756d20616c6c6f776564206f7760448201527f6e65727368697020616d6f756e742065786365656465642e0000000000000000606482015290519081900360840190fd5b80151561141b5760095461141790600163ffffffff61105916565b6009555b6114258383611b19565b505050565b600160a060020a038216600090815260016020908152604080832033845290915290205481111561145a57600080fd5b600160a060020a038216600090815260016020908152604080832033845290915290205461148e908263ffffffff61150816565b600160a060020a03831660009081526001602090815260408083203384529091529020556106ff82825b6114c0610709565b156114ca57600080fd5b806114d4836107b2565b1480156114e15750600081115b156114fe576009546114fa90600163ffffffff61150816565b6009555b6106ff8282611bc3565b6000808383111561151857600080fd5b5050900390565b600061152c338484611a27565b50600192915050565b6000806000806000611545610709565b156115765760007f54000000000000000000000000000000000000000000000000000000000000009450945061199e565b600160a060020a03871615156115b25760007f57000000000000000000000000000000000000000000000000000000000000009450945061199e565b6003546004805460408051600080516020611cb28339815191528152600160a060020a038d8116948201949094526024810192909252519190921691634b5f297a9160448083019260209291908290030181600087803b15801561161557600080fd5b505af1158015611629573d6000803e3d6000fd5b505050506040513d602081101561163f57600080fd5b505115156116735760007f56000000000000000000000000000000000000000000000000000000000000009450945061199e565b6003546004805460408051600080516020611cb28339815191528152600160a060020a038c8116948201949094526024810192909252519190921691634b5f297a9160448083019260209291908290030181600087803b1580156116d657600080fd5b505af11580156116ea573d6000803e3d6000fd5b505050506040513d602081101561170057600080fd5b505115156117345760007f57000000000000000000000000000000000000000000000000000000000000009450945061199e565b600086111561197657611746886107b2565b92508583101561177c5760007f52000000000000000000000000000000000000000000000000000000000000009450945061199e565b611785876107b2565b915087600160a060020a031687600160a060020a0316141580156118525750600354600754604080517fcd6c8343000000000000000000000000000000000000000000000000000000008152306004820152602481019290925251600160a060020a039092169163cd6c8343916044808201926020929091908290030181600087803b15801561181457600080fd5b505af1158015611828573d6000803e3d6000fd5b505050506040513d602081101561183e57600080fd5b5051611850838863ffffffff61105916565b115b156118835760007f59000000000000000000000000000000000000000000000000000000000000009450945061199e565b600354600654604080517fcd6c8343000000000000000000000000000000000000000000000000000000008152306004820152602481019290925251600160a060020a039092169163cd6c8343916044808201926020929091908290030181600087803b1580156118f357600080fd5b505af1158015611907573d6000803e3d6000fd5b505050506040513d602081101561191d57600080fd5b5051905081158015611945575080600954118061194557508060095414801561194557508583115b156119765760007f5a000000000000000000000000000000000000000000000000000000000000009450945061199e565b60017f5100000000000000000000000000000000000000000000000000000000000000945094505b505050935093915050565b600160a060020a03811615156119be57600080fd5b600a54604051600160a060020a038084169216907f8be0079c531659141344cd1fd0a4f28419497f9722a3daafe3b4186f6b6457e090600090a3600a805473ffffffffffffffffffffffffffffffffffffffff1916600160a060020a0392909216919091179055565b600160a060020a038316600090815260208190526040902054811115611a4c57600080fd5b600160a060020a0382161515611a6157600080fd5b600160a060020a038316600090815260208190526040902054611a8a908263ffffffff61150816565b600160a060020a038085166000908152602081905260408082209390935590841681522054611abf908263ffffffff61105916565b600160a060020a038084166000818152602081815260409182902094909455805185815290519193928716927fddf252ad1be2c89b69c2b068fc378daa952ba7f163c4a11628f55a4df523b3ef92918290030190a3505050565b600160a060020a0382161515611b2e57600080fd5b600254611b41908263ffffffff61105916565b600255600160a060020a038216600090815260208190526040902054611b6d908263ffffffff61105916565b600160a060020a0383166000818152602081815260408083209490945583518581529351929391927fddf252ad1be2c89b69c2b068fc378daa952ba7f163c4a11628f55a4df523b3ef9281900390910190a35050565b600160a060020a0382161515611bd857600080fd5b600160a060020a038216600090815260208190526040902054811115611bfd57600080fd5b600254611c10908263ffffffff61150816565b600255600160a060020a038216600090815260208190526040902054611c3c908263ffffffff61150816565b600160a060020a038316600081815260208181526040808320949094558351858152935191937fddf252ad1be2c89b69c2b068fc378daa952ba7f163c4a11628f55a4df523b3ef929081900390910190a35050560008c379a0000000000000000000000000000000000000000000000000000000004b5f297a00000000000000000000000000000000000000000000000000000000a165627a7a7230582067169ea39cabb1ed12794935606f037246a67de74d772df7520a9fad53b4ea7a0029",
  "source": "pragma solidity ^0.4.25;\n\nimport \"openzeppelin-solidity/contracts/ownership/Ownable.sol\";\nimport \"../examples/token/ERC20/TPLERC20Permissioned.sol\";\nimport \"../AttributeRegistryInterface.sol\";\n\n\n/**\n * @title An instance of an owned TPLERC20Permissioned token, with functions for\n * the owner to mint and burn tokens at will (within the limits designated by\n * the specified registry).\n */\ncontract TPLERC20PermissionedInstance is TPLERC20Permissioned, Ownable {\n  /**\n  * @notice The constructor function, with an associated attribute registry at\n  * `registry`, two assignable attribute types with ID\n  * `validOwnerAttributeTypeID` and `validOperatorAttributeTypeID`, an\n  * assignable number of maximum token holders of `maximumOwners`, a\n  * maximum allowance of owned tokens per owner of `ownershipLimit`, and an\n  * attribute for if transfers are paused of `transfersPausedAttributeTypeID`.\n  * @param registry address The account of the associated attribute registry.\n  * @param validOwnerAttributeTypeID uint256 The ID of the required attribute\n  * type in order to send or receive tokens.\n  * @param validOperatorAttributeTypeID uint256 The ID of the required attribute\n  * type in order to transfer tokens as an operator.\n  * @param maximumOwnersAttributeTypeID uint256 The ID of the required attribute\n  * type designating maximum number of allowed token holders.\n  * @param ownershipLimitAttributeTypeID uint256 The ID of the required attribute\n  * type designating maximum tokens that can be owned by any one token holder.\n  * @param transfersPausedAttributeTypeID uint256 The ID of the required\n  * attribute type designating whether transfers are paused.\n  * @dev Note that it may be appropriate to require that the referenced\n  * attribute registry supports the correct interface via EIP-165.\n  */\n  constructor(\n    AttributeRegistryInterface registry,\n    uint256 validOwnerAttributeTypeID,\n    uint256 validOperatorAttributeTypeID,\n    uint256 maximumOwnersAttributeTypeID,\n    uint256 ownershipLimitAttributeTypeID,\n    uint256 transfersPausedAttributeTypeID\n  ) public TPLERC20Permissioned(\n    registry,\n    validOwnerAttributeTypeID,\n    validOperatorAttributeTypeID,\n    maximumOwnersAttributeTypeID,\n    ownershipLimitAttributeTypeID,\n    transfersPausedAttributeTypeID\n  ) {\n    registry; // no-empty-blocks\n  }\n\n  function mint(address account, uint256 value) public onlyOwner {\n    _mint(account, value);\n  }\n\n  function burn(address account, uint256 value) public onlyOwner {\n    _burn(account, value);\n  }\n\n  function burnFrom(address account, uint256 value) public {\n    _burnFrom(account, value);\n  }\n}",
  "sourcePath": "/Users/jretina/Programming/PROPSProject/tpl-contracts/contracts/mock/TPLERC20PermissionedInstance.sol",
  "compiler": {
    "name": "solc",
    "version": "0.4.25+commit.59dbf8f1.Emscripten.clang"
  },
  "schemaVersion": "3.0.0-beta.1",
  "updatedAt": "2019-01-09T15:27:56.371Z"
}