{
  "contractName": "TPLERC20RestrictedReceiver",
  "abi": [
    {
      "constant": false,
      "inputs": [
        {
          "name": "spender",
          "type": "address"
        },
        {
          "name": "value",
          "type": "uint256"
        }
      ],
      "name": "approve",
      "outputs": [
        {
          "name": "",
          "type": "bool"
        }
      ],
      "payable": false,
      "stateMutability": "nonpayable",
      "type": "function"
    },
    {
      "constant": true,
      "inputs": [],
      "name": "totalSupply",
      "outputs": [
        {
          "name": "",
          "type": "uint256"
        }
      ],
      "payable": false,
      "stateMutability": "view",
      "type": "function"
    },
    {
      "constant": false,
      "inputs": [
        {
          "name": "spender",
          "type": "address"
        },
        {
          "name": "addedValue",
          "type": "uint256"
        }
      ],
      "name": "increaseAllowance",
      "outputs": [
        {
          "name": "",
          "type": "bool"
        }
      ],
      "payable": false,
      "stateMutability": "nonpayable",
      "type": "function"
    },
    {
      "constant": true,
      "inputs": [
        {
          "name": "owner",
          "type": "address"
        }
      ],
      "name": "balanceOf",
      "outputs": [
        {
          "name": "",
          "type": "uint256"
        }
      ],
      "payable": false,
      "stateMutability": "view",
      "type": "function"
    },
    {
      "constant": false,
      "inputs": [
        {
          "name": "spender",
          "type": "address"
        },
        {
          "name": "subtractedValue",
          "type": "uint256"
        }
      ],
      "name": "decreaseAllowance",
      "outputs": [
        {
          "name": "",
          "type": "bool"
        }
      ],
      "payable": false,
      "stateMutability": "nonpayable",
      "type": "function"
    },
    {
      "constant": true,
      "inputs": [
        {
          "name": "owner",
          "type": "address"
        },
        {
          "name": "spender",
          "type": "address"
        }
      ],
      "name": "allowance",
      "outputs": [
        {
          "name": "",
          "type": "uint256"
        }
      ],
      "payable": false,
      "stateMutability": "view",
      "type": "function"
    },
    {
      "inputs": [
        {
          "name": "registry",
          "type": "address"
        },
        {
          "name": "validAttributeTypeID",
          "type": "uint256"
        }
      ],
      "payable": false,
      "stateMutability": "nonpayable",
      "type": "constructor"
    },
    {
      "anonymous": false,
      "inputs": [
        {
          "indexed": true,
          "name": "from",
          "type": "address"
        },
        {
          "indexed": true,
          "name": "to",
          "type": "address"
        },
        {
          "indexed": false,
          "name": "value",
          "type": "uint256"
        }
      ],
      "name": "Transfer",
      "type": "event"
    },
    {
      "anonymous": false,
      "inputs": [
        {
          "indexed": true,
          "name": "owner",
          "type": "address"
        },
        {
          "indexed": true,
          "name": "spender",
          "type": "address"
        },
        {
          "indexed": false,
          "name": "value",
          "type": "uint256"
        }
      ],
      "name": "Approval",
      "type": "event"
    },
    {
      "constant": true,
      "inputs": [
        {
          "name": "receiver",
          "type": "address"
        }
      ],
      "name": "canReceive",
      "outputs": [
        {
          "name": "",
          "type": "bool"
        }
      ],
      "payable": false,
      "stateMutability": "view",
      "type": "function"
    },
    {
      "constant": true,
      "inputs": [],
      "name": "getRegistry",
      "outputs": [
        {
          "name": "",
          "type": "address"
        }
      ],
      "payable": false,
      "stateMutability": "view",
      "type": "function"
    },
    {
      "constant": true,
      "inputs": [],
      "name": "getValidAttributeID",
      "outputs": [
        {
          "name": "",
          "type": "uint256"
        }
      ],
      "payable": false,
      "stateMutability": "view",
      "type": "function"
    },
    {
      "constant": false,
      "inputs": [
        {
          "name": "to",
          "type": "address"
        },
        {
          "name": "value",
          "type": "uint256"
        }
      ],
      "name": "transfer",
      "outputs": [
        {
          "name": "",
          "type": "bool"
        }
      ],
      "payable": false,
      "stateMutability": "nonpayable",
      "type": "function"
    },
    {
      "constant": false,
      "inputs": [
        {
          "name": "from",
          "type": "address"
        },
        {
          "name": "to",
          "type": "address"
        },
        {
          "name": "value",
          "type": "uint256"
        }
      ],
      "name": "transferFrom",
      "outputs": [
        {
          "name": "",
          "type": "bool"
        }
      ],
      "payable": false,
      "stateMutability": "nonpayable",
      "type": "function"
    }
  ],
  "bytecode": "0x608060405234801561001057600080fd5b506040516040806109c283398101604052805160209091015160038054600160a060020a031916600160a060020a03909316929092179091556004556109678061005b6000396000f3006080604052600436106100ae5763ffffffff7c0100000000000000000000000000000000000000000000000000000000600035041663095ea7b381146100b357806318160ddd146100eb57806323b872dd14610112578063395093511461013c5780635ab1bd531461016057806370a082311461019157806390d370ba146101b2578063a457c2d7146101d3578063a9059cbb146101f7578063dd62ed3e1461021b578063eac5a01c14610242575b600080fd5b3480156100bf57600080fd5b506100d7600160a060020a0360043516602435610257565b604080519115158252519081900360200190f35b3480156100f757600080fd5b506101006102d5565b60408051918252519081900360200190f35b34801561011e57600080fd5b506100d7600160a060020a03600435811690602435166044356102db565b34801561014857600080fd5b506100d7600160a060020a0360043516602435610425565b34801561016c57600080fd5b506101756104d5565b60408051600160a060020a039092168252519081900360200190f35b34801561019d57600080fd5b50610100600160a060020a03600435166104e4565b3480156101be57600080fd5b506100d7600160a060020a03600435166104ff565b3480156101df57600080fd5b506100d7600160a060020a03600435166024356105a9565b34801561020357600080fd5b506100d7600160a060020a03600435166024356105f4565b34801561022757600080fd5b50610100600160a060020a036004358116906024351661073c565b34801561024e57600080fd5b50610100610767565b6000600160a060020a038316151561026e57600080fd5b336000818152600160209081526040808320600160a060020a03881680855290835292819020869055805186815290519293927f8c5be1e5ebec7d5bd14f71427d1e84f3dd0314c0f7b2291e5b200ac8c7c3b925929181900390910190a350600192915050565b60025490565b60035460048054604080517f4b5f297a000000000000000000000000000000000000000000000000000000008152600160a060020a03878116948201949094526024810192909252516000939290921691634b5f297a9160448082019260209290919082900301818787803b15801561035357600080fd5b505af1158015610367573d6000803e3d6000fd5b505050506040513d602081101561037d57600080fd5b5051151561041257604080517f08c379a000000000000000000000000000000000000000000000000000000000815260206004820152602b60248201527f5472616e73666572206661696c6564202d207265636569766572206973206e6f60448201527f7420617070726f7665642e000000000000000000000000000000000000000000606482015290519081900360840190fd5b61041d84848461076d565b949350505050565b6000600160a060020a038316151561043c57600080fd5b336000908152600160209081526040808320600160a060020a0387168452909152902054610470908363ffffffff61080a16565b336000818152600160209081526040808320600160a060020a0389168085529083529281902085905580519485525191937f8c5be1e5ebec7d5bd14f71427d1e84f3dd0314c0f7b2291e5b200ac8c7c3b925929081900390910190a350600192915050565b600354600160a060020a031690565b600160a060020a031660009081526020819052604090205490565b60035460048054604080517f4b5f297a000000000000000000000000000000000000000000000000000000008152600160a060020a03868116948201949094526024810192909252516000939290921691634b5f297a9160448082019260209290919082900301818787803b15801561057757600080fd5b505af115801561058b573d6000803e3d6000fd5b505050506040513d60208110156105a157600080fd5b505192915050565b6000600160a060020a03831615156105c057600080fd5b336000908152600160209081526040808320600160a060020a0387168452909152902054610470908363ffffffff61081c16565b60035460048054604080517f4b5f297a000000000000000000000000000000000000000000000000000000008152600160a060020a03878116948201949094526024810192909252516000939290921691634b5f297a9160448082019260209290919082900301818787803b15801561066c57600080fd5b505af1158015610680573d6000803e3d6000fd5b505050506040513d602081101561069657600080fd5b5051151561072b57604080517f08c379a000000000000000000000000000000000000000000000000000000000815260206004820152602b60248201527f5472616e73666572206661696c6564202d207265636569766572206973206e6f60448201527f7420617070726f7665642e000000000000000000000000000000000000000000606482015290519081900360840190fd5b6107358383610833565b9392505050565b600160a060020a03918216600090815260016020908152604080832093909416825291909152205490565b60045490565b600160a060020a038316600090815260016020908152604080832033845290915281205482111561079d57600080fd5b600160a060020a03841660009081526001602090815260408083203384529091529020546107d1908363ffffffff61081c16565b600160a060020a0385166000908152600160209081526040808320338452909152902055610800848484610849565b5060019392505050565b60008282018381101561073557600080fd5b6000808383111561082c57600080fd5b5050900390565b6000610840338484610849565b50600192915050565b600160a060020a03831660009081526020819052604090205481111561086e57600080fd5b600160a060020a038216151561088357600080fd5b600160a060020a0383166000908152602081905260409020546108ac908263ffffffff61081c16565b600160a060020a0380851660009081526020819052604080822093909355908416815220546108e1908263ffffffff61080a16565b600160a060020a038084166000818152602081815260409182902094909455805185815290519193928716927fddf252ad1be2c89b69c2b068fc378daa952ba7f163c4a11628f55a4df523b3ef92918290030190a35050505600a165627a7a723058204dcd11f296ee7d77c3409b0ede377676c5666b21dad0ca94512b8faec10766c20029",
  "source": "pragma solidity ^0.4.25;\n\nimport \"openzeppelin-solidity/contracts/token/ERC20/ERC20.sol\";\nimport \"./TPLERC20RestrictedReceiverInterface.sol\";\nimport \"../../../AttributeRegistryInterface.sol\";\n\n\n/**\n * @title Permissioned ERC20 token: transfers are restricted to valid receivers.\n */\ncontract TPLERC20RestrictedReceiver is ERC20, TPLERC20RestrictedReceiverInterface {\n\n  // declare registry interface, used to request attributes from a jurisdiction\n  AttributeRegistryInterface internal _registry;\n\n  // declare attribute ID required in order to receive transferred tokens\n  uint256 internal _validAttributeTypeID;\n\n  /**\n  * @notice The constructor function, with an associated attribute registry at\n  * `registry` and an assignable attribute type with ID `validAttributeTypeID`.\n  * @param registry address The account of the associated attribute registry.  \n  * @param validAttributeTypeID uint256 The ID of the required attribute type.\n  * @dev Note that it may be appropriate to require that the referenced\n  * attribute registry supports the correct interface via EIP-165.\n  */\n  constructor(\n    AttributeRegistryInterface registry,\n    uint256 validAttributeTypeID\n  ) public {\n    _registry = AttributeRegistryInterface(registry);\n    _validAttributeTypeID = validAttributeTypeID;\n  }\n\n  /**\n   * @notice Check if an account is approved to receive token transfers at\n   * account `receiver`.\n   * @param receiver address The account of the recipient.\n   * @return True if the receiver is valid, false otherwise.\n   */\n  function canReceive(address receiver) external view returns (bool) {\n    return _registry.hasAttribute(receiver, _validAttributeTypeID);\n  }\n\n  /**\n   * @notice Get the account of the utilized attribute registry.\n   * @return The account of the registry.\n   */\n  function getRegistry() external view returns (address) {\n    return address(_registry);\n  }\n\n  /**\n   * @notice Get the ID of the attribute type required to receive tokens.\n   * @return The ID of the required attribute type.\n   */\n  function getValidAttributeID() external view returns (uint256) {\n    return _validAttributeTypeID;\n  }\n\n  /**\n   * @notice Transfer an amount of `value` to a receiver at account `to`.\n   * @param to address The account of the receiver.\n   * @param value uint256 the amount to be transferred.\n   * @return True if the transfer was successful.\n   */\n  function transfer(address to, uint256 value) public returns (bool) {\n    require(\n      _registry.hasAttribute(to, _validAttributeTypeID),\n      \"Transfer failed - receiver is not approved.\"\n    );\n    return super.transfer(to, value);\n  }\n\n  /**\n   * @notice Transfer an amount of `value` to a receiver at account `to` on\n   * behalf of a sender at account `from`.\n   * @param to address The account of the receiver.\n   * @param from address The account of the sender.\n   * @param value uint256 the amount to be transferred.\n   * @return True if the transfer was successful.\n   */\n  function transferFrom(\n    address from,\n    address to,\n    uint256 value\n  ) public returns (bool) {\n    require(\n      _registry.hasAttribute(to, _validAttributeTypeID),\n      \"Transfer failed - receiver is not approved.\"\n    );\n    return super.transferFrom(from, to, value);\n  }\n}\n",
  "sourcePath": "/Users/jretina/Programming/PROPSProject/tpl-contracts/contracts/examples/token/ERC20/TPLERC20RestrictedReceiver.sol",
  "compiler": {
    "name": "solc",
    "version": "0.4.25+commit.59dbf8f1.Emscripten.clang"
  },
  "schemaVersion": "3.0.0-beta.1",
  "updatedAt": "2019-01-09T15:27:56.365Z"
}