{
  "contractName": "TPLERC20Permissioned",
  "abi": [
    {
      "constant": false,
      "inputs": [
        {
          "name": "spender",
          "type": "address"
        },
        {
          "name": "value",
          "type": "uint256"
        }
      ],
      "name": "approve",
      "outputs": [
        {
          "name": "",
          "type": "bool"
        }
      ],
      "payable": false,
      "stateMutability": "nonpayable",
      "type": "function"
    },
    {
      "constant": true,
      "inputs": [],
      "name": "totalSupply",
      "outputs": [
        {
          "name": "",
          "type": "uint256"
        }
      ],
      "payable": false,
      "stateMutability": "view",
      "type": "function"
    },
    {
      "constant": false,
      "inputs": [
        {
          "name": "spender",
          "type": "address"
        },
        {
          "name": "addedValue",
          "type": "uint256"
        }
      ],
      "name": "increaseAllowance",
      "outputs": [
        {
          "name": "",
          "type": "bool"
        }
      ],
      "payable": false,
      "stateMutability": "nonpayable",
      "type": "function"
    },
    {
      "constant": true,
      "inputs": [
        {
          "name": "owner",
          "type": "address"
        }
      ],
      "name": "balanceOf",
      "outputs": [
        {
          "name": "",
          "type": "uint256"
        }
      ],
      "payable": false,
      "stateMutability": "view",
      "type": "function"
    },
    {
      "constant": false,
      "inputs": [
        {
          "name": "spender",
          "type": "address"
        },
        {
          "name": "subtractedValue",
          "type": "uint256"
        }
      ],
      "name": "decreaseAllowance",
      "outputs": [
        {
          "name": "",
          "type": "bool"
        }
      ],
      "payable": false,
      "stateMutability": "nonpayable",
      "type": "function"
    },
    {
      "constant": true,
      "inputs": [
        {
          "name": "owner",
          "type": "address"
        },
        {
          "name": "spender",
          "type": "address"
        }
      ],
      "name": "allowance",
      "outputs": [
        {
          "name": "",
          "type": "uint256"
        }
      ],
      "payable": false,
      "stateMutability": "view",
      "type": "function"
    },
    {
      "inputs": [
        {
          "name": "registry",
          "type": "address"
        },
        {
          "name": "validOwnerAttributeTypeID",
          "type": "uint256"
        },
        {
          "name": "validOperatorAttributeTypeID",
          "type": "uint256"
        },
        {
          "name": "maximumOwnersAttributeTypeID",
          "type": "uint256"
        },
        {
          "name": "ownershipLimitAttributeTypeID",
          "type": "uint256"
        },
        {
          "name": "transfersPausedAttributeTypeID",
          "type": "uint256"
        }
      ],
      "payable": false,
      "stateMutability": "nonpayable",
      "type": "constructor"
    },
    {
      "anonymous": false,
      "inputs": [
        {
          "indexed": true,
          "name": "from",
          "type": "address"
        },
        {
          "indexed": true,
          "name": "to",
          "type": "address"
        },
        {
          "indexed": false,
          "name": "value",
          "type": "uint256"
        }
      ],
      "name": "Transfer",
      "type": "event"
    },
    {
      "anonymous": false,
      "inputs": [
        {
          "indexed": true,
          "name": "owner",
          "type": "address"
        },
        {
          "indexed": true,
          "name": "spender",
          "type": "address"
        },
        {
          "indexed": false,
          "name": "value",
          "type": "uint256"
        }
      ],
      "name": "Approval",
      "type": "event"
    },
    {
      "constant": true,
      "inputs": [
        {
          "name": "to",
          "type": "address"
        },
        {
          "name": "value",
          "type": "uint256"
        }
      ],
      "name": "canTransfer",
      "outputs": [
        {
          "name": "",
          "type": "bool"
        },
        {
          "name": "",
          "type": "bytes1"
        }
      ],
      "payable": false,
      "stateMutability": "view",
      "type": "function"
    },
    {
      "constant": true,
      "inputs": [
        {
          "name": "from",
          "type": "address"
        },
        {
          "name": "to",
          "type": "address"
        },
        {
          "name": "value",
          "type": "uint256"
        }
      ],
      "name": "canTransferFrom",
      "outputs": [
        {
          "name": "",
          "type": "bool"
        },
        {
          "name": "",
          "type": "bytes1"
        }
      ],
      "payable": false,
      "stateMutability": "view",
      "type": "function"
    },
    {
      "constant": true,
      "inputs": [],
      "name": "getRegistry",
      "outputs": [
        {
          "name": "",
          "type": "address"
        }
      ],
      "payable": false,
      "stateMutability": "view",
      "type": "function"
    },
    {
      "constant": true,
      "inputs": [],
      "name": "getValidOwnerAttributeTypeID",
      "outputs": [
        {
          "name": "",
          "type": "uint256"
        }
      ],
      "payable": false,
      "stateMutability": "view",
      "type": "function"
    },
    {
      "constant": true,
      "inputs": [],
      "name": "getValidOperatorAttributeTypeID",
      "outputs": [
        {
          "name": "",
          "type": "uint256"
        }
      ],
      "payable": false,
      "stateMutability": "view",
      "type": "function"
    },
    {
      "constant": true,
      "inputs": [],
      "name": "getMaximumOwnersAttributeTypeID",
      "outputs": [
        {
          "name": "",
          "type": "uint256"
        }
      ],
      "payable": false,
      "stateMutability": "view",
      "type": "function"
    },
    {
      "constant": true,
      "inputs": [],
      "name": "getOwnershipLimitAttributeTypeID",
      "outputs": [
        {
          "name": "",
          "type": "uint256"
        }
      ],
      "payable": false,
      "stateMutability": "view",
      "type": "function"
    },
    {
      "constant": true,
      "inputs": [],
      "name": "getTotalOwners",
      "outputs": [
        {
          "name": "",
          "type": "uint256"
        }
      ],
      "payable": false,
      "stateMutability": "view",
      "type": "function"
    },
    {
      "constant": true,
      "inputs": [],
      "name": "transfersPaused",
      "outputs": [
        {
          "name": "",
          "type": "bool"
        }
      ],
      "payable": false,
      "stateMutability": "view",
      "type": "function"
    },
    {
      "constant": false,
      "inputs": [
        {
          "name": "to",
          "type": "address"
        },
        {
          "name": "value",
          "type": "uint256"
        }
      ],
      "name": "transfer",
      "outputs": [
        {
          "name": "",
          "type": "bool"
        }
      ],
      "payable": false,
      "stateMutability": "nonpayable",
      "type": "function"
    },
    {
      "constant": false,
      "inputs": [
        {
          "name": "from",
          "type": "address"
        },
        {
          "name": "to",
          "type": "address"
        },
        {
          "name": "value",
          "type": "uint256"
        }
      ],
      "name": "transferFrom",
      "outputs": [
        {
          "name": "",
          "type": "bool"
        }
      ],
      "payable": false,
      "stateMutability": "nonpayable",
      "type": "function"
    }
  ],
  "bytecode": "0x608060405234801561001057600080fd5b5060405160c08061151d83398101604090815281516020830151918301516060840151608085015160a09095015160038054600160a060020a031916600160a060020a0390951694909417909355600493909355600555600691909155600791909155600855611498806100856000396000f3006080604052600436106100f05763ffffffff7c0100000000000000000000000000000000000000000000000000000000600035041663095ea7b381146100f557806318160ddd1461012d57806323b872dd14610154578063395093511461017e57806343d02634146101a25780634563f30a146101b75780635ab1bd53146101cc57806366f04011146101fd578063691fa94b1461021257806370a0823114610227578063a457c2d714610248578063a69583bd1461026c578063a9059cbb14610281578063d45e09c1146102a5578063db23f9f314610305578063dd62ed3e1461031a578063f37d11cc14610341575b600080fd5b34801561010157600080fd5b50610119600160a060020a036004351660243561036b565b604080519115158252519081900360200190f35b34801561013957600080fd5b506101426103e9565b60408051918252519081900360200190f35b34801561016057600080fd5b50610119600160a060020a03600435811690602435166044356103ef565b34801561018a57600080fd5b50610119600160a060020a0360043516602435610529565b3480156101ae57600080fd5b506101426105d9565b3480156101c357600080fd5b506101196105df565b3480156101d857600080fd5b506101e161066d565b60408051600160a060020a039092168252519081900360200190f35b34801561020957600080fd5b5061014261067c565b34801561021e57600080fd5b50610142610682565b34801561023357600080fd5b50610142600160a060020a0360043516610688565b34801561025457600080fd5b50610119600160a060020a03600435166024356106a3565b34801561027857600080fd5b506101426106ee565b34801561028d57600080fd5b50610119600160a060020a03600435166024356106f4565b3480156102b157600080fd5b506102c9600160a060020a0360043516602435610712565b6040805192151583527fff0000000000000000000000000000000000000000000000000000000000000090911660208301528051918290030190f35b34801561031157600080fd5b5061014261072b565b34801561032657600080fd5b50610142600160a060020a0360043581169060243516610731565b34801561034d57600080fd5b506102c9600160a060020a036004358116906024351660443561075c565b6000600160a060020a038316151561038257600080fd5b336000818152600160209081526040808320600160a060020a03881680855290835292819020869055805186815290519293927f8c5be1e5ebec7d5bd14f71427d1e84f3dd0314c0f7b2291e5b200ac8c7c3b925929181900390910190a350600192915050565b60025490565b6003546005546040805160008051602061144d8339815191528152336004820152602481019290925251600092600160a060020a031691634b5f297a91604480830192602092919082900301818787803b15801561044c57600080fd5b505af1158015610460573d6000803e3d6000fd5b505050506040513d602081101561047657600080fd5b5051151561050b57604080517f08c379a000000000000000000000000000000000000000000000000000000000815260206004820152602b60248201527f5472616e73666572206661696c6564202d206f70657261746f72206973206e6f60448201527f7420617070726f7665642e000000000000000000000000000000000000000000606482015290519081900360840190fd5b61051684848461086f565b610521848484610e0a565b949350505050565b6000600160a060020a038316151561054057600080fd5b336000908152600160209081526040808320600160a060020a0387168452909152902054610574908363ffffffff610ea716565b336000818152600160209081526040808320600160a060020a0389168085529083529281902085905580519485525191937f8c5be1e5ebec7d5bd14f71427d1e84f3dd0314c0f7b2291e5b200ac8c7c3b925929081900390910190a350600192915050565b60065490565b6003546008546040805160008051602061144d8339815191528152306004820152602481019290925251600092600160a060020a031691634b5f297a91604480830192602092919082900301818787803b15801561063c57600080fd5b505af1158015610650573d6000803e3d6000fd5b505050506040513d602081101561066657600080fd5b5051905090565b600354600160a060020a031690565b60045490565b60055490565b600160a060020a031660009081526020819052604090205490565b6000600160a060020a03831615156106ba57600080fd5b336000908152600160209081526040808320600160a060020a0387168452909152902054610574908363ffffffff610eb916565b60075490565b600061070133848461086f565b61070b8383610ed0565b9392505050565b600080610720338585610ee6565b915091509250929050565b60095490565b600160a060020a03918216600090815260016020908152604080832093909416825291909152205490565b6003546005546040805160008051602061144d83398151915281523360048201526024810192909252516000928392600160a060020a0390911691634b5f297a9160448082019260209290919082900301818787803b1580156107be57600080fd5b505af11580156107d2573d6000803e3d6000fd5b505050506040513d60208110156107e857600080fd5b5051151561081b5750600090507f5800000000000000000000000000000000000000000000000000000000000000610867565b826108268633610731565b10156108575750600090507f5300000000000000000000000000000000000000000000000000000000000000610867565b610862858585610ee6565b915091505b935093915050565b600080600061087c6105df565b1561088657600080fd5b600354600480546040805160008051602061144d8339815191528152600160a060020a038b8116948201949094526024810192909252519190921691634b5f297a9160448083019260209291908290030181600087803b1580156108e957600080fd5b505af11580156108fd573d6000803e3d6000fd5b505050506040513d602081101561091357600080fd5b505115156109a857604080517f08c379a000000000000000000000000000000000000000000000000000000000815260206004820152602960248201527f5472616e73666572206661696c6564202d2073656e646572206973206e6f742060448201527f617070726f7665642e0000000000000000000000000000000000000000000000606482015290519081900360840190fd5b600354600480546040805160008051602061144d8339815191528152600160a060020a038a8116948201949094526024810192909252519190921691634b5f297a9160448083019260209291908290030181600087803b158015610a0b57600080fd5b505af1158015610a1f573d6000803e3d6000fd5b505050506040513d6020811015610a3557600080fd5b50511515610aca57604080517f08c379a000000000000000000000000000000000000000000000000000000000815260206004820152602c60248201527f5472616e73666572206661696c6564202d20726563697069656e74206973206e60448201527f6f7420617070726f7665642e0000000000000000000000000000000000000000606482015290519081900360840190fd5b6000841115610e0257610adc85610688565b925085600160a060020a031685600160a060020a03161480610ba85750600354600754604080517fcd6c8343000000000000000000000000000000000000000000000000000000008152306004820152602481019290925251600160a060020a039092169163cd6c8343916044808201926020929091908290030181600087803b158015610b6957600080fd5b505af1158015610b7d573d6000803e3d6000fd5b505050506040513d6020811015610b9357600080fd5b5051610ba5848663ffffffff610ea716565b11155b1515610c6157604080517f08c379a000000000000000000000000000000000000000000000000000000000815260206004820152604260248201527f5472616e73666572206661696c6564202d20726563697069656e742062616c6160448201527f6e63652063616e6e6f7420657863656564206f776e657273686970206c696d6960648201527f742e000000000000000000000000000000000000000000000000000000000000608482015290519081900360a40190fd5b600354600654604080517fcd6c8343000000000000000000000000000000000000000000000000000000008152306004820152602481019290925251600160a060020a039092169163cd6c8343916044808201926020929091908290030181600087803b158015610cd157600080fd5b505af1158015610ce5573d6000803e3d6000fd5b505050506040513d6020811015610cfb57600080fd5b50519150610d0886610688565b9050816009541080610d1a5750600083115b80610d30575081600954148015610d3057508381145b1515610dc357604080517f08c379a000000000000000000000000000000000000000000000000000000000815260206004820152603b60248201527f5472616e73666572206661696c6564202d206d6178696d756d206e756d62657260448201527f206f6620746f6b656e20686f6c646572732065786365656465642e0000000000606482015290519081900360840190fd5b83811415610de357600954610ddf90600163ffffffff610eb916565b6009555b821515610e0257600954610dfe90600163ffffffff610ea716565b6009555b505050505050565b600160a060020a0383166000908152600160209081526040808320338452909152812054821115610e3a57600080fd5b600160a060020a0384166000908152600160209081526040808320338452909152902054610e6e908363ffffffff610eb916565b600160a060020a0385166000908152600160209081526040808320338452909152902055610e9d84848461135a565b5060019392505050565b60008282018381101561070b57600080fd5b60008083831115610ec957600080fd5b5050900390565b6000610edd33848461135a565b50600192915050565b6000806000806000610ef66105df565b15610f275760007f54000000000000000000000000000000000000000000000000000000000000009450945061134f565b600160a060020a0387161515610f635760007f57000000000000000000000000000000000000000000000000000000000000009450945061134f565b600354600480546040805160008051602061144d8339815191528152600160a060020a038d8116948201949094526024810192909252519190921691634b5f297a9160448083019260209291908290030181600087803b158015610fc657600080fd5b505af1158015610fda573d6000803e3d6000fd5b505050506040513d6020811015610ff057600080fd5b505115156110245760007f56000000000000000000000000000000000000000000000000000000000000009450945061134f565b600354600480546040805160008051602061144d8339815191528152600160a060020a038c8116948201949094526024810192909252519190921691634b5f297a9160448083019260209291908290030181600087803b15801561108757600080fd5b505af115801561109b573d6000803e3d6000fd5b505050506040513d60208110156110b157600080fd5b505115156110e55760007f57000000000000000000000000000000000000000000000000000000000000009450945061134f565b6000861115611327576110f788610688565b92508583101561112d5760007f52000000000000000000000000000000000000000000000000000000000000009450945061134f565b61113687610688565b915087600160a060020a031687600160a060020a0316141580156112035750600354600754604080517fcd6c8343000000000000000000000000000000000000000000000000000000008152306004820152602481019290925251600160a060020a039092169163cd6c8343916044808201926020929091908290030181600087803b1580156111c557600080fd5b505af11580156111d9573d6000803e3d6000fd5b505050506040513d60208110156111ef57600080fd5b5051611201838863ffffffff610ea716565b115b156112345760007f59000000000000000000000000000000000000000000000000000000000000009450945061134f565b600354600654604080517fcd6c8343000000000000000000000000000000000000000000000000000000008152306004820152602481019290925251600160a060020a039092169163cd6c8343916044808201926020929091908290030181600087803b1580156112a457600080fd5b505af11580156112b8573d6000803e3d6000fd5b505050506040513d60208110156112ce57600080fd5b50519050811580156112f657508060095411806112f65750806009541480156112f657508583115b156113275760007f5a000000000000000000000000000000000000000000000000000000000000009450945061134f565b60017f5100000000000000000000000000000000000000000000000000000000000000945094505b505050935093915050565b600160a060020a03831660009081526020819052604090205481111561137f57600080fd5b600160a060020a038216151561139457600080fd5b600160a060020a0383166000908152602081905260409020546113bd908263ffffffff610eb916565b600160a060020a0380851660009081526020819052604080822093909355908416815220546113f2908263ffffffff610ea716565b600160a060020a038084166000818152602081815260409182902094909455805185815290519193928716927fddf252ad1be2c89b69c2b068fc378daa952ba7f163c4a11628f55a4df523b3ef92918290030190a350505056004b5f297a00000000000000000000000000000000000000000000000000000000a165627a7a72305820ffde43fcc490b70bfa0039a7ad92cd3165c72410ef6b2201512aca22f46acb5c0029",
  "source": "pragma solidity ^0.4.25;\n\nimport \"openzeppelin-solidity/contracts/token/ERC20/ERC20.sol\";\nimport \"./TPLERC20PermissionedInterface.sol\";\nimport \"../../../AttributeRegistryInterface.sol\";\n\n\n/**\n * @title Permissioned ERC20 token: restricted by owner, receiver, operator,\n * total number of owners, and ownership amount. Funds may be locked by revoking\n * the required attribute on an account or by pausing transfers on the contract.\n */\ncontract TPLERC20Permissioned is ERC20, TPLERC20PermissionedInterface {\n  // declare registry interface, used to request attributes from a jurisdiction\n  AttributeRegistryInterface internal _registry;\n\n  // declare attribute ID required on account in order to send or receive tokens\n  uint256 internal _validOwnerAttributeTypeID;\n\n  // declare attribute ID required in order to transfer tokens as an operator\n  uint256 internal _validOperatorAttributeTypeID;\n\n  // declare attribute ID for determining maximum number of token holders\n  uint256 internal _maximumOwnersAttributeTypeID;\n\n  // declare attribute ID for determining maximum amount of tokens that can be\n  // held by one account.\n  uint256 internal _ownershipLimitAttributeTypeID;\n\n  // declare attribute ID for determining if all transfers have been paused\n  uint256 internal _transfersPausedAttributeTypeID;\n\n  // track the total number of token holders\n  uint256 internal _totalOwners;\n\n  /**\n  * @notice The constructor function, with an associated attribute registry at\n  * `registry`, two assignable attribute types with ID\n  * `validOwnerAttributeTypeID` and `validOperatorAttributeTypeID`, an\n  * assignable number of maximum token holders of `maximumOwners`, a\n  * maximum allowance of owned tokens per owner of `ownershipLimit`, and an\n  * attribute for if transfers are paused of `transfersPausedAttributeTypeID`.\n  * @param registry address The account of the associated attribute registry.\n  * @param validOwnerAttributeTypeID uint256 The ID of the required attribute\n  * type in order to send or receive tokens.\n  * @param validOperatorAttributeTypeID uint256 The ID of the required attribute\n  * type in order to transfer tokens as an operator.\n  * @param maximumOwnersAttributeTypeID uint256 The ID of the required attribute\n  * type designating maximum number of allowed token holders.\n  * @param ownershipLimitAttributeTypeID uint256 The ID of the required attribute\n  * type designating maximum tokens that can be owned by any one token holder.\n  * @param transfersPausedAttributeTypeID uint256 The ID of the required\n  * attribute type designating whether transfers are paused.\n  * @dev Note that it may be appropriate to require that the referenced\n  * attribute registry supports the correct interface via EIP-165.\n  */\n  constructor(\n    AttributeRegistryInterface registry,\n    uint256 validOwnerAttributeTypeID,\n    uint256 validOperatorAttributeTypeID,\n    uint256 maximumOwnersAttributeTypeID,\n    uint256 ownershipLimitAttributeTypeID,\n    uint256 transfersPausedAttributeTypeID\n  ) public {\n    _registry = AttributeRegistryInterface(registry);\n    _validOwnerAttributeTypeID = validOwnerAttributeTypeID;\n    _validOperatorAttributeTypeID = validOperatorAttributeTypeID;\n    _maximumOwnersAttributeTypeID = maximumOwnersAttributeTypeID;\n    _ownershipLimitAttributeTypeID = ownershipLimitAttributeTypeID;\n    _transfersPausedAttributeTypeID = transfersPausedAttributeTypeID;\n  }\n\n  /**\n   * @notice Check if an account is approved to transfer tokens to account `to`\n   * of an amount `value`.\n   * @param to address The account of the recipient.\n   * @param value uint256 The amount to transfer.\n   * @return Bool indicating if transfer will succeed & byte with a status code.\n   */\n  function canTransfer(\n    address to,\n    uint256 value\n  ) external view returns (bool, bytes1) {\n    // Call the internal _canTransfer function that will return status and code\n    return _canTransfer(msg.sender, to, value);\n  }\n\n  /**\n   * @notice Check if an account is approved to transfer tokens on behalf of\n   * account `from` to account `to` of an amount `value`.\n   * @param from address The account holding the tokens to be sent.\n   * @param to address The account of the recipient.\n   * @param value uint256 The amount to transfer.\n   * @return Bool indicating if transfer will succeed & byte with a status code.\n   */\n  function canTransferFrom(\n    address from,\n    address to,\n    uint256 value\n  ) external view returns (bool, bytes1) {\n    // The operator must have the correct attribute assigned.\n    if (!_registry.hasAttribute(msg.sender, _validOperatorAttributeTypeID)) {\n      return (false, bytes1(hex\"58\")); // invalid operator\n    }\n\n    // The operator must have a sufficient approved allowance.\n    if (allowance(from, msg.sender) < value) {\n      return (false, bytes1(hex\"53\")); // insufficient allowance\n    }\n\n    // Call the internal _canTransfer function that will return status and code\n    return _canTransfer(from, to, value);\n  }\n\n  /**\n   * @notice Get the account of the utilized attribute registry.\n   * @return The account of the registry.\n   */\n  function getRegistry() external view returns (address) {\n    return address(_registry);\n  }\n\n  /**\n   * @notice Get the ID of the attribute type required to send & receive tokens.\n   * @return The ID of the required attribute type.\n   */\n  function getValidOwnerAttributeTypeID() external view returns (uint256) {\n    return _validOwnerAttributeTypeID;\n  }\n\n  /**\n   * @notice Get the ID of the attribute type required to transfer tokens as an\n   * operator.\n   * @return The ID of the required attribute type.\n   */\n  function getValidOperatorAttributeTypeID() external view returns (uint256) {\n    return _validOperatorAttributeTypeID;\n  }\n\n  /**\n   * @notice Get the ID of the attribute type that tracks the maximum number of\n   * allowed token holders.\n   * @return The number of allowed token holders.\n   */\n  function getMaximumOwnersAttributeTypeID() external view returns (uint256) {\n    return _maximumOwnersAttributeTypeID;\n  }\n\n  /**\n   * @notice Get the ID of the attribute type that tracks the maximum amount of\n   * tokens that can be held by any one account. Note that this could easily be\n   * adapted to assign specific limits to each account.\n   * @return The ownership limit for any one account.\n   */\n  function getOwnershipLimitAttributeTypeID() external view returns (uint256) {\n    return _ownershipLimitAttributeTypeID;\n  }\n\n  /**\n   * @notice Get the total number of current token holders.\n   * @return The current number of token holders.\n   */\n  function getTotalOwners() external view returns (uint256) {\n    return _totalOwners;\n  }\n\n  /**\n   * @dev Modifier to make a function callable only if transfers are not paused.\n   */\n  modifier whenNotPaused() {\n    require(!transfersPaused());\n    _;\n  }\n\n  /**\n   * @return true if all transfers are paused on the contract, false otherwise.\n   */\n  function transfersPaused() public view returns (bool) {\n    return _registry.hasAttribute(\n      address(this), _transfersPausedAttributeTypeID\n    );\n  }\n\n  /**\n   * @notice Transfer an amount of `value` to a receiver at account `to`.\n   * @param to address The account of the receiver.\n   * @param value uint256 the amount to be transferred.\n   * @return True if the transfer was successful.\n   */\n  function transfer(\n    address to,\n    uint256 value\n  ) public returns (bool) {\n\n    _prepareTransfer(msg.sender, to, value);\n\n    return super.transfer(to, value);\n  }\n\n  /**\n   * @notice Transfer an amount of `value` to a receiver at account `to` on\n   * behalf of a sender at account `from`.\n   * @param from address The account of the sender.\n   * @param to address The account of the receiver.\n   * @param value uint256 the amount to be transferred.\n   * @return True if the transfer was successful.\n   */\n  function transferFrom(\n    address from,\n    address to,\n    uint256 value\n  ) public returns (bool) {\n    // The operator must have the correct attribute assigned.\n    require(\n      _registry.hasAttribute(msg.sender, _validOperatorAttributeTypeID),\n      \"Transfer failed - operator is not approved.\"\n    );\n\n    _prepareTransfer(from, to, value);\n\n    return super.transferFrom(from, to, value);\n  }\n\n  /**\n   * @notice Internal function for checking if tokens can be transferred from\n   * `from` to account `to` of an amount `value`.\n   * @param from address The account holding the tokens to be sent.\n   * @param to address The account of the recipient.\n   * @param value uint256 The amount to transfer.\n   * @return Bool indicating if transfer will succeed & byte with a status code.\n   */\n  function _canTransfer(\n    address from,\n    address to,\n    uint256 value\n  ) internal view returns (bool, bytes1) {\n    // The contract cannot be paused.\n    if (transfersPaused()) {\n      return (false, bytes1(hex\"54\")); // transfers halted\n    }\n\n    // The `to` address cannot be the null address.\n    if (to == address(0)) {\n      return (false, bytes1(hex\"57\")); // invalid receiver\n    }\n\n    // The owner must have the correct attribute assigned.\n    if (!_registry.hasAttribute(from, _validOwnerAttributeTypeID)) {\n      return (false, bytes1(hex\"56\")); // invalid sender\n    }\n\n    // The recipient of the transfer must have the correct attribute assigned.\n    if (!_registry.hasAttribute(to, _validOwnerAttributeTypeID)) {\n      return (false, bytes1(hex\"57\")); // invalid receiver\n    }\n\n    if (value > 0) {\n      // The owner must have a sufficient balance.\n      uint256 ownerBalance = balanceOf(from);\n      if (ownerBalance < value) {\n        return (false, bytes1(hex\"52\")); // insufficient balance\n      }\n\n      // The recipient must not be pushed over the maximum allowable balance.\n      uint256 receiverBalance = balanceOf(to);\n      if (\n        to != from &&\n        receiverBalance.add(value) > _registry.getAttributeValue(\n          address(this), _ownershipLimitAttributeTypeID\n        )\n      ) {\n        return (false, bytes1(hex\"59\")); // invalid balance\n      }\n\n      // The maximum number of owners must not be exceeded.\n      uint256 maximumOwners = _registry.getAttributeValue(\n        address(this), _maximumOwnersAttributeTypeID\n      );\n\n      if (\n        receiverBalance == 0 && (\n          _totalOwners > maximumOwners || (\n            _totalOwners == maximumOwners &&\n            ownerBalance > value\n          )\n        )\n      ) {\n        return (false, bytes1(hex\"5A\")); // invalid state\n      }\n    }\n\n    // The transfer is approved, return true and the success status code.\n    return (true, bytes1(hex\"51\")); // transfer approved\n  }\n\n  /**\n   * @notice Internal function called before transfers with amount of `value` to\n   * a receiver at account `to` and from a sender at account `from`.\n   * @param from address The account holding the tokens to be sent.\n   * @param to address The account of the receiver.\n   * @param value uint256 the amount to be transferred.\n   */\n  function _prepareTransfer(\n    address from,\n    address to,\n    uint256 value\n  ) internal whenNotPaused {\n    // The sender of the transfer must have the correct attribute assigned.\n    require(\n      _registry.hasAttribute(from, _validOwnerAttributeTypeID),\n      \"Transfer failed - sender is not approved.\"\n    );\n\n    // The recipient of the transfer must have the correct attribute assigned.\n    require(\n      _registry.hasAttribute(to, _validOwnerAttributeTypeID),\n      \"Transfer failed - recipient is not approved.\"\n    );\n\n    if (value > 0) {\n      // The recipient must not be pushed over the maximum allowable balance.\n      uint256 receiverBalance = balanceOf(to);\n      require(\n        to == from ||\n        receiverBalance.add(value) <= _registry.getAttributeValue(\n          address(this), _ownershipLimitAttributeTypeID\n        ),\n        \"Transfer failed - recipient balance cannot exceed ownership limit.\"\n      );\n\n      // The maximum number of owners must not be exceeded.\n      uint256 maximumOwners = _registry.getAttributeValue(\n        address(this), _maximumOwnersAttributeTypeID\n      );\n\n      uint256 ownerBalance = balanceOf(from);\n      require(\n        _totalOwners < maximumOwners ||\n        receiverBalance > 0 || (\n          _totalOwners == maximumOwners &&\n          ownerBalance == value\n        ),\n        \"Transfer failed - maximum number of token holders exceeded.\"\n      );\n\n      // Decrease number of total token holders if transferring entire balance.\n      if (ownerBalance == value) {\n        _totalOwners = _totalOwners.sub(1);\n      }\n\n      // Increase number of total token holders if recipient has a zero balance.\n      if (receiverBalance == 0) {\n        _totalOwners = _totalOwners.add(1);\n      }\n    }\n  }\n\n  /**\n   * @dev Internal function that mints an amount of the token and assigns it to\n   * an account. This encapsulates the modification of balances such that the\n   * proper events are emitted. Note that a partitioned / tranched token\n   * representation should be used in order to enforce a lockup period for\n   * minted funds unless tokens are only minted once per account.\n   * @param account The account that will receive the created tokens.\n   * @param value The amount that will be created.\n   */\n  function _mint(address account, uint256 value) internal whenNotPaused {\n    // The receiving account must have the correct attribute assigned.\n    require(\n      _registry.hasAttribute(account, _validOwnerAttributeTypeID),\n      \"Mint failed - recipient is not approved.\"\n    );\n\n    if (value > 0) {\n      uint256 accountBalance = balanceOf(account);\n\n      require(\n        accountBalance > 0 ||\n        _totalOwners < _registry.getAttributeValue(\n          address(this), _maximumOwnersAttributeTypeID\n        ),\n        \"Mint failed - maximum number of token holders exceeded.\"\n      );\n\n      require(\n        accountBalance.add(value) <= _registry.getAttributeValue(\n          address(this), _ownershipLimitAttributeTypeID\n        ),\n        \"Mint failed - maximum allowed ownership amount exceeded.\"\n      );\n\n      if (accountBalance == 0) {\n        _totalOwners = _totalOwners.add(1);\n      }\n    }\n\n    super._mint(account, value);\n  }\n\n  /**\n   * @dev Internal function that burns an amount of the token of a given\n   * account.\n   * @param account The account whose tokens will be burnt.\n   * @param value The amount that will be burnt.\n   */\n  function _burn(address account, uint256 value) internal whenNotPaused {\n    if (balanceOf(account) == value && value > 0) {\n      _totalOwners = _totalOwners.sub(1);\n    }\n\n    super._burn(account, value);\n  }\n}\n",
  "sourcePath": "/Users/jretina/Programming/PROPSProject/tpl-contracts/contracts/examples/token/ERC20/TPLERC20Permissioned.sol",
  "compiler": {
    "name": "solc",
    "version": "0.4.25+commit.59dbf8f1.Emscripten.clang"
  },
  "schemaVersion": "3.0.0-beta.1",
  "updatedAt": "2019-01-09T15:27:56.362Z"
}