{
  "contractName": "TPLERC721Permissioned",
  "abi": [
    {
      "constant": true,
      "inputs": [
        {
          "name": "interfaceId",
          "type": "bytes4"
        }
      ],
      "name": "supportsInterface",
      "outputs": [
        {
          "name": "",
          "type": "bool"
        }
      ],
      "payable": false,
      "stateMutability": "view",
      "type": "function"
    },
    {
      "constant": true,
      "inputs": [
        {
          "name": "tokenId",
          "type": "uint256"
        }
      ],
      "name": "getApproved",
      "outputs": [
        {
          "name": "",
          "type": "address"
        }
      ],
      "payable": false,
      "stateMutability": "view",
      "type": "function"
    },
    {
      "constant": false,
      "inputs": [
        {
          "name": "to",
          "type": "address"
        },
        {
          "name": "tokenId",
          "type": "uint256"
        }
      ],
      "name": "approve",
      "outputs": [],
      "payable": false,
      "stateMutability": "nonpayable",
      "type": "function"
    },
    {
      "constant": true,
      "inputs": [
        {
          "name": "tokenId",
          "type": "uint256"
        }
      ],
      "name": "ownerOf",
      "outputs": [
        {
          "name": "",
          "type": "address"
        }
      ],
      "payable": false,
      "stateMutability": "view",
      "type": "function"
    },
    {
      "constant": true,
      "inputs": [
        {
          "name": "owner",
          "type": "address"
        }
      ],
      "name": "balanceOf",
      "outputs": [
        {
          "name": "",
          "type": "uint256"
        }
      ],
      "payable": false,
      "stateMutability": "view",
      "type": "function"
    },
    {
      "constant": false,
      "inputs": [
        {
          "name": "to",
          "type": "address"
        },
        {
          "name": "approved",
          "type": "bool"
        }
      ],
      "name": "setApprovalForAll",
      "outputs": [],
      "payable": false,
      "stateMutability": "nonpayable",
      "type": "function"
    },
    {
      "constant": true,
      "inputs": [
        {
          "name": "owner",
          "type": "address"
        },
        {
          "name": "operator",
          "type": "address"
        }
      ],
      "name": "isApprovedForAll",
      "outputs": [
        {
          "name": "",
          "type": "bool"
        }
      ],
      "payable": false,
      "stateMutability": "view",
      "type": "function"
    },
    {
      "inputs": [
        {
          "name": "registry",
          "type": "address"
        },
        {
          "name": "validAttributeTypeID",
          "type": "uint256"
        }
      ],
      "payable": false,
      "stateMutability": "nonpayable",
      "type": "constructor"
    },
    {
      "anonymous": false,
      "inputs": [
        {
          "indexed": true,
          "name": "from",
          "type": "address"
        },
        {
          "indexed": true,
          "name": "to",
          "type": "address"
        },
        {
          "indexed": true,
          "name": "tokenId",
          "type": "uint256"
        }
      ],
      "name": "Transfer",
      "type": "event"
    },
    {
      "anonymous": false,
      "inputs": [
        {
          "indexed": true,
          "name": "owner",
          "type": "address"
        },
        {
          "indexed": true,
          "name": "approved",
          "type": "address"
        },
        {
          "indexed": true,
          "name": "tokenId",
          "type": "uint256"
        }
      ],
      "name": "Approval",
      "type": "event"
    },
    {
      "anonymous": false,
      "inputs": [
        {
          "indexed": true,
          "name": "owner",
          "type": "address"
        },
        {
          "indexed": true,
          "name": "operator",
          "type": "address"
        },
        {
          "indexed": false,
          "name": "approved",
          "type": "bool"
        }
      ],
      "name": "ApprovalForAll",
      "type": "event"
    },
    {
      "constant": true,
      "inputs": [
        {
          "name": "from",
          "type": "address"
        },
        {
          "name": "to",
          "type": "address"
        },
        {
          "name": "tokenId",
          "type": "uint256"
        },
        {
          "name": "value",
          "type": "uint256"
        },
        {
          "name": "data",
          "type": "bytes"
        }
      ],
      "name": "canSafeTransferFrom",
      "outputs": [
        {
          "name": "",
          "type": "bool"
        },
        {
          "name": "",
          "type": "bytes1"
        }
      ],
      "payable": false,
      "stateMutability": "view",
      "type": "function"
    },
    {
      "constant": true,
      "inputs": [
        {
          "name": "from",
          "type": "address"
        },
        {
          "name": "to",
          "type": "address"
        },
        {
          "name": "tokenId",
          "type": "uint256"
        },
        {
          "name": "value",
          "type": "uint256"
        }
      ],
      "name": "canSafeTransferFrom",
      "outputs": [
        {
          "name": "",
          "type": "bool"
        },
        {
          "name": "",
          "type": "bytes1"
        }
      ],
      "payable": false,
      "stateMutability": "view",
      "type": "function"
    },
    {
      "constant": true,
      "inputs": [
        {
          "name": "from",
          "type": "address"
        },
        {
          "name": "to",
          "type": "address"
        },
        {
          "name": "tokenId",
          "type": "uint256"
        },
        {
          "name": "value",
          "type": "uint256"
        }
      ],
      "name": "canTransferFrom",
      "outputs": [
        {
          "name": "",
          "type": "bool"
        },
        {
          "name": "",
          "type": "bytes1"
        }
      ],
      "payable": false,
      "stateMutability": "view",
      "type": "function"
    },
    {
      "constant": true,
      "inputs": [],
      "name": "getRegistry",
      "outputs": [
        {
          "name": "",
          "type": "address"
        }
      ],
      "payable": false,
      "stateMutability": "view",
      "type": "function"
    },
    {
      "constant": true,
      "inputs": [],
      "name": "getValidAttributeID",
      "outputs": [
        {
          "name": "",
          "type": "uint256"
        }
      ],
      "payable": false,
      "stateMutability": "view",
      "type": "function"
    },
    {
      "constant": false,
      "inputs": [
        {
          "name": "from",
          "type": "address"
        },
        {
          "name": "to",
          "type": "address"
        },
        {
          "name": "tokenId",
          "type": "uint256"
        }
      ],
      "name": "transferFrom",
      "outputs": [],
      "payable": false,
      "stateMutability": "nonpayable",
      "type": "function"
    },
    {
      "constant": false,
      "inputs": [
        {
          "name": "from",
          "type": "address"
        },
        {
          "name": "to",
          "type": "address"
        },
        {
          "name": "tokenId",
          "type": "uint256"
        }
      ],
      "name": "safeTransferFrom",
      "outputs": [],
      "payable": false,
      "stateMutability": "nonpayable",
      "type": "function"
    },
    {
      "constant": false,
      "inputs": [
        {
          "name": "from",
          "type": "address"
        },
        {
          "name": "to",
          "type": "address"
        },
        {
          "name": "tokenId",
          "type": "uint256"
        },
        {
          "name": "data",
          "type": "bytes"
        }
      ],
      "name": "safeTransferFrom",
      "outputs": [],
      "payable": false,
      "stateMutability": "nonpayable",
      "type": "function"
    }
  ],
  "bytecode": "0x608060405234801561001057600080fd5b506040516040806113cb83398101604052805160209091015161005b7f01ffc9a7000000000000000000000000000000000000000000000000000000006401000000006100b6810204565b61008d7f80ac58cd000000000000000000000000000000000000000000000000000000006401000000006100b6810204565b60058054600160a060020a031916600160a060020a039390931692909217909155600655610122565b7fffffffff0000000000000000000000000000000000000000000000000000000080821614156100e557600080fd5b7fffffffff00000000000000000000000000000000000000000000000000000000166000908152602081905260409020805460ff19166001179055565b61129a806101316000396000f3006080604052600436106100da5763ffffffff7c010000000000000000000000000000000000000000000000000000000060003504166301ffc9a781146100df578063081812fc1461012a578063095ea7b31461015e57806323b872dd146101845780633571ffa3146101ae57806342842e0e1461022757806355e9a76e146102515780635ab1bd531461027e5780636352211e1461029357806370a08231146102ab57806397f0f17a146102de578063a22cb4651461030b578063b88d4fde14610331578063e985e9c5146103a0578063eac5a01c146103c7575b600080fd5b3480156100eb57600080fd5b506101167bffffffffffffffffffffffffffffffffffffffffffffffffffffffff19600435166103dc565b604080519115158252519081900360200190f35b34801561013657600080fd5b50610142600435610410565b60408051600160a060020a039092168252519081900360200190f35b34801561016a57600080fd5b50610182600160a060020a0360043516602435610442565b005b34801561019057600080fd5b50610182600160a060020a03600435811690602435166044356104f8565b3480156101ba57600080fd5b506101eb600160a060020a03600480358216916024803590911691604435916064359160843591820191013561063a565b6040805192151583527fff0000000000000000000000000000000000000000000000000000000000000090911660208301528051918290030190f35b34801561023357600080fd5b50610182600160a060020a036004358116906024351660443561086f565b34801561025d57600080fd5b506101eb600160a060020a036004358116906024351660443560643561088b565b34801561028a57600080fd5b50610142610a02565b34801561029f57600080fd5b50610142600435610a11565b3480156102b757600080fd5b506102cc600160a060020a0360043516610a3b565b60408051918252519081900360200190f35b3480156102ea57600080fd5b506101eb600160a060020a0360043581169060243516604435606435610a6e565b34801561031757600080fd5b50610182600160a060020a03600435166024351515610b62565b34801561033d57600080fd5b50604080516020601f60643560048181013592830184900484028501840190955281845261018294600160a060020a038135811695602480359092169560443595369560849401918190840183828082843750949750610be69650505050505050565b3480156103ac57600080fd5b50610116600160a060020a0360043581169060243516610c0e565b3480156103d357600080fd5b506102cc610c3c565b7bffffffffffffffffffffffffffffffffffffffffffffffffffffffff191660009081526020819052604090205460ff1690565b600061041b82610c42565b151561042657600080fd5b50600090815260026020526040902054600160a060020a031690565b600061044d82610a11565b9050600160a060020a03838116908216141561046857600080fd5b33600160a060020a038216148061048457506104848133610c0e565b151561048f57600080fd5b600082815260026020526040808220805473ffffffffffffffffffffffffffffffffffffffff1916600160a060020a0387811691821790925591518593918516917f8c5be1e5ebec7d5bd14f71427d1e84f3dd0314c0f7b2291e5b200ac8c7c3b92591a4505050565b600554600654604080517f4b5f297a000000000000000000000000000000000000000000000000000000008152600160a060020a038681166004830152602482019390935290519190921691634b5f297a9160448083019260209291908290030181600087803b15801561056b57600080fd5b505af115801561057f573d6000803e3d6000fd5b505050506040513d602081101561059557600080fd5b5051151561062a57604080517f08c379a000000000000000000000000000000000000000000000000000000000815260206004820152602b60248201527f5472616e73666572206661696c6564202d207265636569766572206973206e6f60448201527f7420617070726f7665642e000000000000000000000000000000000000000000606482015290519081900360840190fd5b610635838383610c5f565b505050565b600080600085111561065f57506000905060008051602061124f833981519152610864565b6106693387610ced565b151561068857506000905060008051602061124f833981519152610864565b600160a060020a03871615156106b157506000905060008051602061124f833981519152610864565b63150b7a027c0100000000000000000000000000000000000000000000000000000000027bffffffffffffffffffffffffffffffffffffffffffffffffffffffff191661073089898988888080601f01602080910402602001604051908101604052809392919081815260200183838082843750610d4c945050505050565b7bffffffffffffffffffffffffffffffffffffffffffffffffffffffff19161461076d57506000905060008051602061124f833981519152610864565b600554600654604080517f4b5f297a000000000000000000000000000000000000000000000000000000008152600160a060020a038b81166004830152602482019390935290519190921691634b5f297a9160448083019260209291908290030181600087803b1580156107e057600080fd5b505af11580156107f4573d6000803e3d6000fd5b505050506040513d602081101561080a57600080fd5b5051151561083d5750600090507f1000000000000000000000000000000000000000000000000000000000000000610864565b50600190507f01000000000000000000000000000000000000000000000000000000000000005b965096945050505050565b6106358383836020604051908101604052806000815250610be6565b60008060008311156108b057506000905060008051602061124f8339815191526109f9565b6108ba3385610ced565b15156108d957506000905060008051602061124f8339815191526109f9565b600160a060020a038516151561090257506000905060008051602061124f8339815191526109f9565b600554600654604080517f4b5f297a000000000000000000000000000000000000000000000000000000008152600160a060020a038981166004830152602482019390935290519190921691634b5f297a9160448083019260209291908290030181600087803b15801561097557600080fd5b505af1158015610989573d6000803e3d6000fd5b505050506040513d602081101561099f57600080fd5b505115156109d25750600090507f10000000000000000000000000000000000000000000000000000000000000006109f9565b50600190507f01000000000000000000000000000000000000000000000000000000000000005b94509492505050565b600554600160a060020a031690565b600081815260016020526040812054600160a060020a0316801515610a3557600080fd5b92915050565b6000600160a060020a0382161515610a5257600080fd5b50600160a060020a031660009081526003602052604090205490565b6000806000831115610a9357506000905060008051602061124f8339815191526109f9565b610a9d3385610ced565b1515610abc57506000905060008051602061124f8339815191526109f9565b600160a060020a0385161515610ae557506000905060008051602061124f8339815191526109f9565b6040805160208101909152600081527f150b7a020000000000000000000000000000000000000000000000000000000090610b2590889088908890610d4c565b7bffffffffffffffffffffffffffffffffffffffffffffffffffffffff19161461090257506000905060008051602061124f8339815191526109f9565b600160a060020a038216331415610b7857600080fd5b336000818152600460209081526040808320600160a060020a03871680855290835292819020805460ff1916861515908117909155815190815290519293927f17307eab39ab6107e8899845ad3d59bd9653f200f220920489ca2b5937696c31929181900390910190a35050565b610bf18484846104f8565b610bfd84848484610efd565b1515610c0857600080fd5b50505050565b600160a060020a03918216600090815260046020908152604080832093909416825291909152205460ff1690565b60065490565b600090815260016020526040902054600160a060020a0316151590565b610c693382610ced565b1515610c7457600080fd5b600160a060020a0382161515610c8957600080fd5b610c93838261107f565b610c9d83826110f0565b610ca78282611186565b8082600160a060020a031684600160a060020a03167fddf252ad1be2c89b69c2b068fc378daa952ba7f163c4a11628f55a4df523b3ef60405160405180910390a4505050565b600080610cf983610a11565b905080600160a060020a031684600160a060020a03161480610d34575083600160a060020a0316610d2984610410565b600160a060020a0316145b80610d445750610d448185610c0e565b949350505050565b600060606000610d6486600160a060020a0316611216565b1515610d92577f150b7a02000000000000000000000000000000000000000000000000000000009250610ef3565b6040513360248201818152600160a060020a038a16604484015260648301889052608060848401908152875160a485015287517f150b7a0200000000000000000000000000000000000000000000000000000000948c938b938b939192909160c490910190602085019080838360005b83811015610e1a578181015183820152602001610e02565b50505050905090810190601f168015610e475780820380516001836020036101000a031916815260200191505b5060408051601f198184030181529190526020810180517bffffffffffffffffffffffffffffffffffffffffffffffffffffffff167bffffffffffffffffffffffffffffffffffffffffffffffffffffffff1990991698909817909752509496506127109450505050505a10610ec1576113885a03610ec3565b5a5b90508160200182516040516000815260208183858c88fa8060018114610ee857610eed565b825197505b50505050505b5050949350505050565b600080610f1285600160a060020a0316611216565b1515610f215760019150611076565b6040517f150b7a020000000000000000000000000000000000000000000000000000000081523360048201818152600160a060020a03898116602485015260448401889052608060648501908152875160848601528751918a169463150b7a0294938c938b938b93909160a490910190602085019080838360005b83811015610fb4578181015183820152602001610f9c565b50505050905090810190601f168015610fe15780820380516001836020036101000a031916815260200191505b5095505050505050602060405180830381600087803b15801561100357600080fd5b505af1158015611017573d6000803e3d6000fd5b505050506040513d602081101561102d57600080fd5b50517bffffffffffffffffffffffffffffffffffffffffffffffffffffffff1981167f150b7a020000000000000000000000000000000000000000000000000000000014925090505b50949350505050565b81600160a060020a031661109282610a11565b600160a060020a0316146110a557600080fd5b600081815260026020526040902054600160a060020a0316156110ec576000818152600260205260409020805473ffffffffffffffffffffffffffffffffffffffff191690555b5050565b81600160a060020a031661110382610a11565b600160a060020a03161461111657600080fd5b600160a060020a03821660009081526003602052604090205461114090600163ffffffff61121e16565b600160a060020a03909216600090815260036020908152604080832094909455918152600190915220805473ffffffffffffffffffffffffffffffffffffffff19169055565b600081815260016020526040902054600160a060020a0316156111a857600080fd5b6000818152600160208181526040808420805473ffffffffffffffffffffffffffffffffffffffff1916600160a060020a03881690811790915584526003909152909120546111f691611235565b600160a060020a0390921660009081526003602052604090209190915550565b6000903b1190565b6000808383111561122e57600080fd5b5050900390565b60008282018381101561124757600080fd5b93925050505600a000000000000000000000000000000000000000000000000000000000000000a165627a7a723058204d3a7fb8756e7f7eb0e401e8661d2ca6d7fb7310d0efa418a402f4fe11f12a700029",
  "source": "pragma solidity ^0.4.25;\n\nimport \"openzeppelin-solidity/contracts/token/ERC721/ERC721.sol\";\nimport \"openzeppelin-solidity/contracts/utils/Address.sol\";\nimport \"./TPLERC721PermissionedInterface.sol\";\nimport \"../../../AttributeRegistryInterface.sol\";\n\n\n/**\n * @title Permissioned ERC721 token: ownership is restricted to valid accounts.\n */\ncontract TPLERC721Permissioned is ERC721, TPLERC721PermissionedInterface {\n  using Address for address;\n\n  // Declare registry interface, used to request attributes from a jurisdiction.\n  AttributeRegistryInterface internal _registry;\n\n  // Declare attribute ID required in order to hold tokens,\n  uint256 internal _validAttributeTypeID;\n\n  // `bytes4(keccak256(\"onERC721Received(address,address,uint256,bytes)\"))`\n  // i.e. `IERC721Receiver(0).onERC721Received.selector`\n  bytes4 private constant ERC721_RECEIVED = 0x150b7a02;\n\n  /**\n  * @notice The constructor function, with an associated attribute registry at\n  * `registry` and an assignable attribute type with ID `validAttributeTypeID`.\n  * @param registry address The account of the associated attribute registry.  \n  * @param validAttributeTypeID uint256 The ID of the required attribute type.\n  * @dev Note that it may be appropriate to require that the referenced\n  * attribute registry supports the correct interface via EIP-165.\n  */\n  constructor(\n    AttributeRegistryInterface registry,\n    uint256 validAttributeTypeID\n  ) public {\n    _registry = AttributeRegistryInterface(registry);\n    _validAttributeTypeID = validAttributeTypeID;\n  }\n\n  /**\n   * @notice Check if a transfer of the NFT with ID `tokenId` on behalf of\n   * account `from` to a recipient at account `to` with `msg.value` of `value`\n   * and data `data` is approved. The check must fail if the recipient of the\n   * transfer does not correctly implement `onERC721Received`.\n   * @param from address The current owner of the NFT.\n   * @param to address The new owner.\n   * @param tokenId uint256 The NFT to transfer.\n   * @param value uint256 The amount of ether to include with the transaction.   \n   * @param data bytes Additional data with no specified format to be included.\n   * @return Bool indicating if transfer is approved & byte with a status code.\n   */  \n  function canSafeTransferFrom(\n    address from,\n    address to,\n    uint256 tokenId,\n    uint256 value,\n    bytes data\n  ) external view returns (bool, bytes1) {\n    // This implementation does not allow attaching a value to the transfer.\n    if (value > 0) {\n      return (false, bytes1(hex\"A0\")); // NOTE: error codes are not standardized\n    }\n\n    // The spender must be approved or the owner of the NFT.\n    if (!_isApprovedOrOwner(msg.sender, tokenId)) {\n      return (false, bytes1(hex\"A0\")); // NOTE: error codes are not standardized      \n    }\n\n    // The to address cannot be the null address.\n    if (to == address(0)) {\n      return (false, bytes1(hex\"A0\")); // NOTE: error codes are not standardized       \n    }\n\n    // The receiver must return the required magic number (if it is a contract).\n    if (_safeCheckOnERC721Received(from, to, tokenId, data) != ERC721_RECEIVED) {\n      return (false, bytes1(hex\"A0\")); // NOTE: error codes are not standardized\n    }\n\n    // The recipient of the transfer must have the correct attribute assigned.\n    if (!_registry.hasAttribute(to, _validAttributeTypeID)) {\n      return (false, bytes1(hex\"10\")); // NOTE: error codes are not standardized      \n    }\n\n    // The transfer is approved, return true and the success status code.\n    return (true, bytes1(hex\"01\"));\n  }\n\n  /**\n   * @notice Check if a transfer of the NFT with ID `tokenId` on behalf of\n   * account `from` to a recipient at account `to` with `msg.value` of `value`\n   * is approved. The check must fail if the recipient of the transfer does not\n   * correctly implement `onERC721Received`.\n   * @param from address The current owner of the NFT.\n   * @param to address The new owner.\n   * @param tokenId uint256 The NFT to transfer.\n   * @param value uint256 The amount of ether to include with the transaction.   \n   * @return Bool indicating if transfer is approved & byte with a status code.\n   */\n  function canSafeTransferFrom(\n    address from,\n    address to,\n    uint256 tokenId,\n    uint256 value\n  ) external view returns (bool, bytes1) {\n    // This implementation does not allow attaching a value to the transfer.\n    if (value > 0) {\n      return (false, bytes1(hex\"A0\")); // NOTE: error codes are not standardized\n    }\n\n    // The spender must be approved or the owner of the NFT.\n    if (!_isApprovedOrOwner(msg.sender, tokenId)) {\n      return (false, bytes1(hex\"A0\")); // NOTE: error codes are not standardized      \n    }\n\n    // The to address cannot be the null address.\n    if (to == address(0)) {\n      return (false, bytes1(hex\"A0\")); // NOTE: error codes are not standardized       \n    }\n\n    // The receiver must return the required magic number (if it is a contract).\n    if (_safeCheckOnERC721Received(from, to, tokenId, \"\") != ERC721_RECEIVED) {\n      return (false, bytes1(hex\"A0\")); // NOTE: error codes are not standardized\n    }\n\n    // The recipient of the transfer must have the correct attribute assigned.\n    if (!_registry.hasAttribute(to, _validAttributeTypeID)) {\n      return (false, bytes1(hex\"10\")); // NOTE: error codes are not standardized      \n    }\n\n    // The transfer is approved, return true and the success status code.\n    return (true, bytes1(hex\"01\"));\n  }\n\n  /**\n   * @notice Check if a transfer of the NFT with ID `tokenId` on behalf of\n   * account `from` to a recipient at account `to` with `msg.value` of `value`\n   * is approved. THE CALLER IS RESPONSIBLE TO CONFIRM THAT `to` IS CAPABLE OF\n   * RECEIVING NFTS OR ELSE THEY MAY BE PERMANENTLY LOST.\n   * @param from address The current owner of the NFT.\n   * @param to address The new owner.\n   * @param tokenId uint256 The NFT to transfer.\n   * @param value uint256 The amount of ether to include with the transaction.   \n   * @return Bool indicating if transfer is approved & byte with a status code.\n   */  \n  function canTransferFrom(\n    address from,\n    address to,\n    uint256 tokenId,\n    uint256 value\n  ) external view returns (bool, bytes1) {\n    // avoid an unused variable warning.\n    from;\n\n    // This implementation does not allow attaching a value to the transfer.\n    if (value > 0) {\n      return (false, bytes1(hex\"A0\")); // NOTE: error codes are not standardized\n    }\n\n    // The spender must be approved or the owner of the NFT.\n    if (!_isApprovedOrOwner(msg.sender, tokenId)) {\n      return (false, bytes1(hex\"A0\")); // NOTE: error codes are not standardized      \n    }\n\n    // The to address cannot be the null address.\n    if (to == address(0)) {\n      return (false, bytes1(hex\"A0\")); // NOTE: error codes are not standardized       \n    }\n\n    // The recipient of the transfer must have the correct attribute assigned.\n    if (!_registry.hasAttribute(to, _validAttributeTypeID)) {\n      return (false, bytes1(hex\"10\")); // NOTE: error codes are not standardized      \n    }\n\n    // The transfer is approved, return true and the success status code.\n    return (true, bytes1(hex\"01\"));\n  }\n\n  /**\n   * @notice Get the account of the utilized attribute registry.\n   * @return The account of the registry.\n   */\n  function getRegistry() external view returns (address) {\n    return address(_registry);\n  }\n\n  /**\n   * @notice Get the ID of the attribute type required to receive tokens.\n   * @return The ID of the required attribute type.\n   */\n  function getValidAttributeID() external view returns (uint256) {\n    return _validAttributeTypeID;\n  }\n\n  /**\n   * @dev Transfers the ownership of a given token ID to another address\n   * Usage of this method is discouraged, use `safeTransferFrom` when possible\n   * Requires the msg sender to be the owner, approved, or operator\n   * @param from current owner of the token\n   * @param to address to receive the ownership of the given token ID\n   * @param tokenId uint256 ID of the token to be transferred\n  */\n  function transferFrom(\n    address from,\n    address to,\n    uint256 tokenId\n  )\n    public\n  {\n    require(\n      _registry.hasAttribute(to, _validAttributeTypeID),\n      \"Transfer failed - receiver is not approved.\"\n    );\n    super.transferFrom(from, to, tokenId);\n  }\n\n  /**\n   * @dev Safely transfers the ownership of a given token ID to another address\n   * If the target address is a contract, it must implement `onERC721Received`,\n   * which is called upon a safe transfer, and return the magic value\n   * `bytes4(keccak256(\"onERC721Received(address,address,uint256,bytes)\"))`;\n   * otherwise, the transfer is reverted.\n   *\n   * Requires the msg sender to be the owner, approved, or operator\n   * @param from current owner of the token\n   * @param to address to receive the ownership of the given token ID\n   * @param tokenId uint256 ID of the token to be transferred\n  */\n  function safeTransferFrom(\n    address from,\n    address to,\n    uint256 tokenId\n  )\n    public\n  {\n    // solium-disable-next-line arg-overflow\n    safeTransferFrom(from, to, tokenId, hex\"\");\n  }\n\n  /**\n   * @dev Safely transfers the ownership of a given token ID to another address\n   * If the target address is a contract, it must implement `onERC721Received`,\n   * which is called upon a safe transfer, and return the magic value\n   * `bytes4(keccak256(\"onERC721Received(address,address,uint256,bytes)\"))`;\n   * otherwise, the transfer is reverted.\n   * Requires the msg sender to be the owner, approved, or operator\n   * @param from current owner of the token\n   * @param to address to receive the ownership of the given token ID\n   * @param tokenId uint256 ID of the token to be transferred\n   * @param data bytes data to send along with a safe transfer check\n   */\n  function safeTransferFrom(\n    address from,\n    address to,\n    uint256 tokenId,\n    bytes data\n  )\n    public\n  {\n    transferFrom(from, to, tokenId);\n    // solium-disable-next-line arg-overflow\n    require(_checkOnERC721Received(from, to, tokenId, data));\n  }\n\n  function _safeCheckOnERC721Received(\n    address from,\n    address to,\n    uint256 tokenId,\n    bytes data\n  ) internal view returns (bytes4 result) {\n    if (!to.isContract()) {\n      return ERC721_RECEIVED;\n    }\n\n    bytes memory encodedParams = abi.encodeWithSelector(\n      ERC721_RECEIVED,\n      msg.sender,\n      from,\n      tokenId,\n      data\n    );\n\n    uint256 maxGas = gasleft() < 10000 ? gasleft() : gasleft() - 5000;\n\n    assembly {\n      let encodedParams_data := add(0x20, encodedParams)\n      let encodedParams_size := mload(encodedParams)\n      \n      let output := mload(0x40) // get storage start from free memory pointer\n      mstore(output, 0x0)       // set up the location for output of staticcall\n\n      let success := staticcall(\n        maxGas,                 // save some gas for processing failures\n        to,                     // address to call\n        encodedParams_data,     // inputs are stored at pointer location\n        encodedParams_size,     // inputs are 68 bytes (4 + 32 * 2)\n        output,                 // return to designated free space\n        0x20                    // output is one word, or 32 bytes\n      )\n\n      switch success            // instrumentation bug: use switch instead of if\n      case 1 {                  // only recognize successful staticcall output \n        result := mload(output) // set the output to the return value\n      }\n    }\n  }\n}",
  "sourcePath": "/Users/jretina/Programming/PROPSProject/tpl-contracts/contracts/examples/token/ERC721/TPLERC721Permissioned.sol",
  "compiler": {
    "name": "solc",
    "version": "0.4.25+commit.59dbf8f1.Emscripten.clang"
  },
  "schemaVersion": "3.0.0-beta.1",
  "updatedAt": "2019-01-09T15:27:56.366Z"
}