{
  "contractName": "TPLERC20RestrictedReceiverInstance",
  "abi": [
    {
      "constant": false,
      "inputs": [
        {
          "name": "spender",
          "type": "address"
        },
        {
          "name": "value",
          "type": "uint256"
        }
      ],
      "name": "approve",
      "outputs": [
        {
          "name": "",
          "type": "bool"
        }
      ],
      "payable": false,
      "stateMutability": "nonpayable",
      "type": "function"
    },
    {
      "constant": true,
      "inputs": [],
      "name": "totalSupply",
      "outputs": [
        {
          "name": "",
          "type": "uint256"
        }
      ],
      "payable": false,
      "stateMutability": "view",
      "type": "function"
    },
    {
      "constant": false,
      "inputs": [
        {
          "name": "from",
          "type": "address"
        },
        {
          "name": "to",
          "type": "address"
        },
        {
          "name": "value",
          "type": "uint256"
        }
      ],
      "name": "transferFrom",
      "outputs": [
        {
          "name": "",
          "type": "bool"
        }
      ],
      "payable": false,
      "stateMutability": "nonpayable",
      "type": "function"
    },
    {
      "constant": false,
      "inputs": [
        {
          "name": "spender",
          "type": "address"
        },
        {
          "name": "addedValue",
          "type": "uint256"
        }
      ],
      "name": "increaseAllowance",
      "outputs": [
        {
          "name": "",
          "type": "bool"
        }
      ],
      "payable": false,
      "stateMutability": "nonpayable",
      "type": "function"
    },
    {
      "constant": true,
      "inputs": [],
      "name": "getRegistry",
      "outputs": [
        {
          "name": "",
          "type": "address"
        }
      ],
      "payable": false,
      "stateMutability": "view",
      "type": "function"
    },
    {
      "constant": true,
      "inputs": [
        {
          "name": "owner",
          "type": "address"
        }
      ],
      "name": "balanceOf",
      "outputs": [
        {
          "name": "",
          "type": "uint256"
        }
      ],
      "payable": false,
      "stateMutability": "view",
      "type": "function"
    },
    {
      "constant": true,
      "inputs": [
        {
          "name": "receiver",
          "type": "address"
        }
      ],
      "name": "canReceive",
      "outputs": [
        {
          "name": "",
          "type": "bool"
        }
      ],
      "payable": false,
      "stateMutability": "view",
      "type": "function"
    },
    {
      "constant": false,
      "inputs": [
        {
          "name": "spender",
          "type": "address"
        },
        {
          "name": "subtractedValue",
          "type": "uint256"
        }
      ],
      "name": "decreaseAllowance",
      "outputs": [
        {
          "name": "",
          "type": "bool"
        }
      ],
      "payable": false,
      "stateMutability": "nonpayable",
      "type": "function"
    },
    {
      "constant": false,
      "inputs": [
        {
          "name": "to",
          "type": "address"
        },
        {
          "name": "value",
          "type": "uint256"
        }
      ],
      "name": "transfer",
      "outputs": [
        {
          "name": "",
          "type": "bool"
        }
      ],
      "payable": false,
      "stateMutability": "nonpayable",
      "type": "function"
    },
    {
      "constant": true,
      "inputs": [
        {
          "name": "owner",
          "type": "address"
        },
        {
          "name": "spender",
          "type": "address"
        }
      ],
      "name": "allowance",
      "outputs": [
        {
          "name": "",
          "type": "uint256"
        }
      ],
      "payable": false,
      "stateMutability": "view",
      "type": "function"
    },
    {
      "constant": true,
      "inputs": [],
      "name": "getValidAttributeID",
      "outputs": [
        {
          "name": "",
          "type": "uint256"
        }
      ],
      "payable": false,
      "stateMutability": "view",
      "type": "function"
    },
    {
      "inputs": [
        {
          "name": "initialBalance",
          "type": "uint256"
        },
        {
          "name": "registry",
          "type": "address"
        },
        {
          "name": "validAttributeTypeID",
          "type": "uint256"
        }
      ],
      "payable": false,
      "stateMutability": "nonpayable",
      "type": "constructor"
    },
    {
      "anonymous": false,
      "inputs": [
        {
          "indexed": true,
          "name": "from",
          "type": "address"
        },
        {
          "indexed": true,
          "name": "to",
          "type": "address"
        },
        {
          "indexed": false,
          "name": "value",
          "type": "uint256"
        }
      ],
      "name": "Transfer",
      "type": "event"
    },
    {
      "anonymous": false,
      "inputs": [
        {
          "indexed": true,
          "name": "owner",
          "type": "address"
        },
        {
          "indexed": true,
          "name": "spender",
          "type": "address"
        },
        {
          "indexed": false,
          "name": "value",
          "type": "uint256"
        }
      ],
      "name": "Approval",
      "type": "event"
    }
  ],
  "bytecode": "0x608060405234801561001057600080fd5b50604051606080610ab183398101604090815281516020830151919092015160038054600160a060020a031916600160a060020a0384161790556004819055610062338464010000000061006a810204565b50505061013b565b600160a060020a038216151561007f57600080fd5b600254610099908264010000000061080a61012282021704565b600255600160a060020a0382166000908152602081905260409020546100cc908264010000000061080a61012282021704565b600160a060020a0383166000818152602081815260408083209490945583518581529351929391927fddf252ad1be2c89b69c2b068fc378daa952ba7f163c4a11628f55a4df523b3ef9281900390910190a35050565b60008282018381101561013457600080fd5b9392505050565b6109678061014a6000396000f3006080604052600436106100ae5763ffffffff7c0100000000000000000000000000000000000000000000000000000000600035041663095ea7b381146100b357806318160ddd146100eb57806323b872dd14610112578063395093511461013c5780635ab1bd531461016057806370a082311461019157806390d370ba146101b2578063a457c2d7146101d3578063a9059cbb146101f7578063dd62ed3e1461021b578063eac5a01c14610242575b600080fd5b3480156100bf57600080fd5b506100d7600160a060020a0360043516602435610257565b604080519115158252519081900360200190f35b3480156100f757600080fd5b506101006102d5565b60408051918252519081900360200190f35b34801561011e57600080fd5b506100d7600160a060020a03600435811690602435166044356102db565b34801561014857600080fd5b506100d7600160a060020a0360043516602435610425565b34801561016c57600080fd5b506101756104d5565b60408051600160a060020a039092168252519081900360200190f35b34801561019d57600080fd5b50610100600160a060020a03600435166104e4565b3480156101be57600080fd5b506100d7600160a060020a03600435166104ff565b3480156101df57600080fd5b506100d7600160a060020a03600435166024356105a9565b34801561020357600080fd5b506100d7600160a060020a03600435166024356105f4565b34801561022757600080fd5b50610100600160a060020a036004358116906024351661073c565b34801561024e57600080fd5b50610100610767565b6000600160a060020a038316151561026e57600080fd5b336000818152600160209081526040808320600160a060020a03881680855290835292819020869055805186815290519293927f8c5be1e5ebec7d5bd14f71427d1e84f3dd0314c0f7b2291e5b200ac8c7c3b925929181900390910190a350600192915050565b60025490565b60035460048054604080517f4b5f297a000000000000000000000000000000000000000000000000000000008152600160a060020a03878116948201949094526024810192909252516000939290921691634b5f297a9160448082019260209290919082900301818787803b15801561035357600080fd5b505af1158015610367573d6000803e3d6000fd5b505050506040513d602081101561037d57600080fd5b5051151561041257604080517f08c379a000000000000000000000000000000000000000000000000000000000815260206004820152602b60248201527f5472616e73666572206661696c6564202d207265636569766572206973206e6f60448201527f7420617070726f7665642e000000000000000000000000000000000000000000606482015290519081900360840190fd5b61041d84848461076d565b949350505050565b6000600160a060020a038316151561043c57600080fd5b336000908152600160209081526040808320600160a060020a0387168452909152902054610470908363ffffffff61080a16565b336000818152600160209081526040808320600160a060020a0389168085529083529281902085905580519485525191937f8c5be1e5ebec7d5bd14f71427d1e84f3dd0314c0f7b2291e5b200ac8c7c3b925929081900390910190a350600192915050565b600354600160a060020a031690565b600160a060020a031660009081526020819052604090205490565b60035460048054604080517f4b5f297a000000000000000000000000000000000000000000000000000000008152600160a060020a03868116948201949094526024810192909252516000939290921691634b5f297a9160448082019260209290919082900301818787803b15801561057757600080fd5b505af115801561058b573d6000803e3d6000fd5b505050506040513d60208110156105a157600080fd5b505192915050565b6000600160a060020a03831615156105c057600080fd5b336000908152600160209081526040808320600160a060020a0387168452909152902054610470908363ffffffff61081c16565b60035460048054604080517f4b5f297a000000000000000000000000000000000000000000000000000000008152600160a060020a03878116948201949094526024810192909252516000939290921691634b5f297a9160448082019260209290919082900301818787803b15801561066c57600080fd5b505af1158015610680573d6000803e3d6000fd5b505050506040513d602081101561069657600080fd5b5051151561072b57604080517f08c379a000000000000000000000000000000000000000000000000000000000815260206004820152602b60248201527f5472616e73666572206661696c6564202d207265636569766572206973206e6f60448201527f7420617070726f7665642e000000000000000000000000000000000000000000606482015290519081900360840190fd5b6107358383610833565b9392505050565b600160a060020a03918216600090815260016020908152604080832093909416825291909152205490565b60045490565b600160a060020a038316600090815260016020908152604080832033845290915281205482111561079d57600080fd5b600160a060020a03841660009081526001602090815260408083203384529091529020546107d1908363ffffffff61081c16565b600160a060020a0385166000908152600160209081526040808320338452909152902055610800848484610849565b5060019392505050565b60008282018381101561073557600080fd5b6000808383111561082c57600080fd5b5050900390565b6000610840338484610849565b50600192915050565b600160a060020a03831660009081526020819052604090205481111561086e57600080fd5b600160a060020a038216151561088357600080fd5b600160a060020a0383166000908152602081905260409020546108ac908263ffffffff61081c16565b600160a060020a0380851660009081526020819052604080822093909355908416815220546108e1908263ffffffff61080a16565b600160a060020a038084166000818152602081815260409182902094909455805185815290519193928716927fddf252ad1be2c89b69c2b068fc378daa952ba7f163c4a11628f55a4df523b3ef92918290030190a35050505600a165627a7a723058208cff5d208398b0d4e854bdfed4575013dfbca45fb2d6325366c95a366b982eb70029",
  "source": "pragma solidity ^0.4.25;\n\nimport \"../examples/token/ERC20/TPLERC20RestrictedReceiver.sol\";\nimport \"../AttributeRegistryInterface.sol\";\n\n\n/**\n * @title An instance of TPLRestrictedReceiverToken with an initial balance.\n */\ncontract TPLERC20RestrictedReceiverInstance is TPLERC20RestrictedReceiver {\n  /**\n  * @notice The constructor function, with an associated attribute registry at\n  * `registry`, an assignable attribute type with ID `validAttributeTypeID`, and\n  * an initial balance of `initialBalance`.\n  * @param initialBalance uint256 The initial balance assigned to the deployer.  \n  * @param registry address The account of the associated attribute registry.  \n  * @param validAttributeTypeID uint256 The ID of the required attribute type.\n  * @dev Note that it may be appropriate to require that the referenced\n  * attribute registry supports the correct interface via EIP-165.\n  */\n  constructor(\n    uint256 initialBalance,\n    AttributeRegistryInterface registry,\n    uint256 validAttributeTypeID\n  ) public TPLERC20RestrictedReceiver(registry, validAttributeTypeID) {\n    _mint(msg.sender, initialBalance);\n  }\n}",
  "sourcePath": "/Users/jretina/Programming/PROPSProject/tpl-contracts/contracts/mock/TPLERC20RestrictedReceiverInstance.sol",
  "compiler": {
    "name": "solc",
    "version": "0.4.25+commit.59dbf8f1.Emscripten.clang"
  },
  "schemaVersion": "3.0.0-beta.1",
  "updatedAt": "2019-01-09T15:27:56.381Z"
}