{
  "contractName": "TPLERC721PermissionedInstance",
  "abi": [
    {
      "constant": true,
      "inputs": [
        {
          "name": "interfaceId",
          "type": "bytes4"
        }
      ],
      "name": "supportsInterface",
      "outputs": [
        {
          "name": "",
          "type": "bool"
        }
      ],
      "payable": false,
      "stateMutability": "view",
      "type": "function"
    },
    {
      "constant": true,
      "inputs": [
        {
          "name": "tokenId",
          "type": "uint256"
        }
      ],
      "name": "getApproved",
      "outputs": [
        {
          "name": "",
          "type": "address"
        }
      ],
      "payable": false,
      "stateMutability": "view",
      "type": "function"
    },
    {
      "constant": false,
      "inputs": [
        {
          "name": "to",
          "type": "address"
        },
        {
          "name": "tokenId",
          "type": "uint256"
        }
      ],
      "name": "approve",
      "outputs": [],
      "payable": false,
      "stateMutability": "nonpayable",
      "type": "function"
    },
    {
      "constant": true,
      "inputs": [],
      "name": "totalSupply",
      "outputs": [
        {
          "name": "",
          "type": "uint256"
        }
      ],
      "payable": false,
      "stateMutability": "view",
      "type": "function"
    },
    {
      "constant": false,
      "inputs": [
        {
          "name": "from",
          "type": "address"
        },
        {
          "name": "to",
          "type": "address"
        },
        {
          "name": "tokenId",
          "type": "uint256"
        }
      ],
      "name": "transferFrom",
      "outputs": [],
      "payable": false,
      "stateMutability": "nonpayable",
      "type": "function"
    },
    {
      "constant": true,
      "inputs": [
        {
          "name": "owner",
          "type": "address"
        },
        {
          "name": "index",
          "type": "uint256"
        }
      ],
      "name": "tokenOfOwnerByIndex",
      "outputs": [
        {
          "name": "",
          "type": "uint256"
        }
      ],
      "payable": false,
      "stateMutability": "view",
      "type": "function"
    },
    {
      "constant": true,
      "inputs": [
        {
          "name": "from",
          "type": "address"
        },
        {
          "name": "to",
          "type": "address"
        },
        {
          "name": "tokenId",
          "type": "uint256"
        },
        {
          "name": "value",
          "type": "uint256"
        },
        {
          "name": "data",
          "type": "bytes"
        }
      ],
      "name": "canSafeTransferFrom",
      "outputs": [
        {
          "name": "",
          "type": "bool"
        },
        {
          "name": "",
          "type": "bytes1"
        }
      ],
      "payable": false,
      "stateMutability": "view",
      "type": "function"
    },
    {
      "constant": false,
      "inputs": [
        {
          "name": "from",
          "type": "address"
        },
        {
          "name": "to",
          "type": "address"
        },
        {
          "name": "tokenId",
          "type": "uint256"
        }
      ],
      "name": "safeTransferFrom",
      "outputs": [],
      "payable": false,
      "stateMutability": "nonpayable",
      "type": "function"
    },
    {
      "constant": true,
      "inputs": [
        {
          "name": "index",
          "type": "uint256"
        }
      ],
      "name": "tokenByIndex",
      "outputs": [
        {
          "name": "",
          "type": "uint256"
        }
      ],
      "payable": false,
      "stateMutability": "view",
      "type": "function"
    },
    {
      "constant": true,
      "inputs": [
        {
          "name": "from",
          "type": "address"
        },
        {
          "name": "to",
          "type": "address"
        },
        {
          "name": "tokenId",
          "type": "uint256"
        },
        {
          "name": "value",
          "type": "uint256"
        }
      ],
      "name": "canTransferFrom",
      "outputs": [
        {
          "name": "",
          "type": "bool"
        },
        {
          "name": "",
          "type": "bytes1"
        }
      ],
      "payable": false,
      "stateMutability": "view",
      "type": "function"
    },
    {
      "constant": true,
      "inputs": [],
      "name": "getRegistry",
      "outputs": [
        {
          "name": "",
          "type": "address"
        }
      ],
      "payable": false,
      "stateMutability": "view",
      "type": "function"
    },
    {
      "constant": true,
      "inputs": [
        {
          "name": "tokenId",
          "type": "uint256"
        }
      ],
      "name": "ownerOf",
      "outputs": [
        {
          "name": "",
          "type": "address"
        }
      ],
      "payable": false,
      "stateMutability": "view",
      "type": "function"
    },
    {
      "constant": true,
      "inputs": [
        {
          "name": "owner",
          "type": "address"
        }
      ],
      "name": "balanceOf",
      "outputs": [
        {
          "name": "",
          "type": "uint256"
        }
      ],
      "payable": false,
      "stateMutability": "view",
      "type": "function"
    },
    {
      "constant": true,
      "inputs": [
        {
          "name": "from",
          "type": "address"
        },
        {
          "name": "to",
          "type": "address"
        },
        {
          "name": "tokenId",
          "type": "uint256"
        },
        {
          "name": "value",
          "type": "uint256"
        }
      ],
      "name": "canSafeTransferFrom",
      "outputs": [
        {
          "name": "",
          "type": "bool"
        },
        {
          "name": "",
          "type": "bytes1"
        }
      ],
      "payable": false,
      "stateMutability": "view",
      "type": "function"
    },
    {
      "constant": false,
      "inputs": [
        {
          "name": "to",
          "type": "address"
        },
        {
          "name": "approved",
          "type": "bool"
        }
      ],
      "name": "setApprovalForAll",
      "outputs": [],
      "payable": false,
      "stateMutability": "nonpayable",
      "type": "function"
    },
    {
      "constant": false,
      "inputs": [
        {
          "name": "from",
          "type": "address"
        },
        {
          "name": "to",
          "type": "address"
        },
        {
          "name": "tokenId",
          "type": "uint256"
        },
        {
          "name": "data",
          "type": "bytes"
        }
      ],
      "name": "safeTransferFrom",
      "outputs": [],
      "payable": false,
      "stateMutability": "nonpayable",
      "type": "function"
    },
    {
      "constant": true,
      "inputs": [
        {
          "name": "owner",
          "type": "address"
        },
        {
          "name": "operator",
          "type": "address"
        }
      ],
      "name": "isApprovedForAll",
      "outputs": [
        {
          "name": "",
          "type": "bool"
        }
      ],
      "payable": false,
      "stateMutability": "view",
      "type": "function"
    },
    {
      "constant": true,
      "inputs": [],
      "name": "getValidAttributeID",
      "outputs": [
        {
          "name": "",
          "type": "uint256"
        }
      ],
      "payable": false,
      "stateMutability": "view",
      "type": "function"
    },
    {
      "inputs": [
        {
          "name": "registry",
          "type": "address"
        },
        {
          "name": "validAttributeTypeID",
          "type": "uint256"
        }
      ],
      "payable": false,
      "stateMutability": "nonpayable",
      "type": "constructor"
    },
    {
      "anonymous": false,
      "inputs": [
        {
          "indexed": true,
          "name": "from",
          "type": "address"
        },
        {
          "indexed": true,
          "name": "to",
          "type": "address"
        },
        {
          "indexed": true,
          "name": "tokenId",
          "type": "uint256"
        }
      ],
      "name": "Transfer",
      "type": "event"
    },
    {
      "anonymous": false,
      "inputs": [
        {
          "indexed": true,
          "name": "owner",
          "type": "address"
        },
        {
          "indexed": true,
          "name": "approved",
          "type": "address"
        },
        {
          "indexed": true,
          "name": "tokenId",
          "type": "uint256"
        }
      ],
      "name": "Approval",
      "type": "event"
    },
    {
      "anonymous": false,
      "inputs": [
        {
          "indexed": true,
          "name": "owner",
          "type": "address"
        },
        {
          "indexed": true,
          "name": "operator",
          "type": "address"
        },
        {
          "indexed": false,
          "name": "approved",
          "type": "bool"
        }
      ],
      "name": "ApprovalForAll",
      "type": "event"
    }
  ],
  "bytecode": "0x60806040523480156200001157600080fd5b50604051604080620019888339810160405280516020909101518181620000617f01ffc9a70000000000000000000000000000000000000000000000000000000064010000000062000108810204565b620000957f80ac58cd0000000000000000000000000000000000000000000000000000000064010000000062000108810204565b60058054600160a060020a031916600160a060020a039390931692909217909155600655620000ed7f780e9d630000000000000000000000000000000000000000000000000000000064010000000062000108810204565b6200010064010000000062000175810204565b5050620003fb565b7fffffffff0000000000000000000000000000000000000000000000000000000080821614156200013857600080fd5b7fffffffff00000000000000000000000000000000000000000000000000000000166000908152602081905260409020805460ff19166001179055565b604080516c010000000000000000000000003302602080830191909152600019430140603480840191909152835180840390910181526054909201928390528151600093918291908401908083835b60208310620001e55780518252601f199092019160209182019101620001c4565b5181516020939093036101000a6000190180199091169216919091179052604051920182900390912093506200022b92503391508390506401000000006200022e810204565b50565b620002488282640100000000620014d66200028d82021704565b600980546000838152600a60205260408120829055600182018355919091527f6e1540171b6c0c960b71a7020d9f60077f6af931a8bbf590da0223dacf75c7af015550565b600160a060020a0382161515620002a357600080fd5b620002b88282640100000000620002f4810204565b6040518190600160a060020a038416906000907fddf252ad1be2c89b69c2b068fc378daa952ba7f163c4a11628f55a4df523b3ef908290a45050565b6000620003108383640100000000620013f06200034d82021704565b50600160a060020a039091166000908152600760209081526040808320805460018101825590845282842081018590559383526008909152902055565b600081815260016020526040902054600160a060020a0316156200037057600080fd5b60008181526001602081815260408084208054600160a060020a031916600160a060020a0388169081179091558452600390915290912054620003c191640100000000620003e18102620014801704565b600160a060020a0390921660009081526003602052604090209190915550565b600082820183811015620003f457600080fd5b9392505050565b61157d806200040b6000396000f3006080604052600436106100fb5763ffffffff7c010000000000000000000000000000000000000000000000000000000060003504166301ffc9a78114610100578063081812fc1461014b578063095ea7b31461017f57806318160ddd146101a557806323b872dd146101cc5780632f745c59146101f65780633571ffa31461021a57806342842e0e146102935780634f6ccce7146102bd57806355e9a76e146102d55780635ab1bd53146103025780636352211e1461031757806370a082311461032f57806397f0f17a14610350578063a22cb4651461037d578063b88d4fde146103a3578063e985e9c514610412578063eac5a01c14610439575b600080fd5b34801561010c57600080fd5b506101377bffffffffffffffffffffffffffffffffffffffffffffffffffffffff196004351661044e565b604080519115158252519081900360200190f35b34801561015757600080fd5b50610163600435610482565b60408051600160a060020a039092168252519081900360200190f35b34801561018b57600080fd5b506101a3600160a060020a03600435166024356104b4565b005b3480156101b157600080fd5b506101ba61056a565b60408051918252519081900360200190f35b3480156101d857600080fd5b506101a3600160a060020a0360043581169060243516604435610571565b34801561020257600080fd5b506101ba600160a060020a03600435166024356106b3565b34801561022657600080fd5b50610257600160a060020a036004803582169160248035909116916044359160643591608435918201910135610700565b6040805192151583527fff0000000000000000000000000000000000000000000000000000000000000090911660208301528051918290030190f35b34801561029f57600080fd5b506101a3600160a060020a0360043581169060243516604435610935565b3480156102c957600080fd5b506101ba600435610951565b3480156102e157600080fd5b50610257600160a060020a0360043581169060243516604435606435610986565b34801561030e57600080fd5b50610163610afd565b34801561032357600080fd5b50610163600435610b0c565b34801561033b57600080fd5b506101ba600160a060020a0360043516610b36565b34801561035c57600080fd5b50610257600160a060020a0360043581169060243516604435606435610b69565b34801561038957600080fd5b506101a3600160a060020a03600435166024351515610c5d565b3480156103af57600080fd5b50604080516020601f6064356004818101359283018490048402850184019095528184526101a394600160a060020a038135811695602480359092169560443595369560849401918190840183828082843750949750610ce19650505050505050565b34801561041e57600080fd5b50610137600160a060020a0360043581169060243516610d09565b34801561044557600080fd5b506101ba610d37565b7bffffffffffffffffffffffffffffffffffffffffffffffffffffffff191660009081526020819052604090205460ff1690565b600061048d82610d3d565b151561049857600080fd5b50600090815260026020526040902054600160a060020a031690565b60006104bf82610b0c565b9050600160a060020a0383811690821614156104da57600080fd5b33600160a060020a03821614806104f657506104f68133610d09565b151561050157600080fd5b600082815260026020526040808220805473ffffffffffffffffffffffffffffffffffffffff1916600160a060020a0387811691821790925591518593918516917f8c5be1e5ebec7d5bd14f71427d1e84f3dd0314c0f7b2291e5b200ac8c7c3b92591a4505050565b6009545b90565b600554600654604080517f4b5f297a000000000000000000000000000000000000000000000000000000008152600160a060020a038681166004830152602482019390935290519190921691634b5f297a9160448083019260209291908290030181600087803b1580156105e457600080fd5b505af11580156105f8573d6000803e3d6000fd5b505050506040513d602081101561060e57600080fd5b505115156106a357604080517f08c379a000000000000000000000000000000000000000000000000000000000815260206004820152602b60248201527f5472616e73666572206661696c6564202d207265636569766572206973206e6f60448201527f7420617070726f7665642e000000000000000000000000000000000000000000606482015290519081900360840190fd5b6106ae838383610d5a565b505050565b60006106be83610b36565b82106106c957600080fd5b600160a060020a03831660009081526007602052604090208054839081106106ed57fe5b9060005260206000200154905092915050565b600080600085111561072557506000905060008051602061153283398151915261092a565b61072f3387610de8565b151561074e57506000905060008051602061153283398151915261092a565b600160a060020a038716151561077757506000905060008051602061153283398151915261092a565b63150b7a027c0100000000000000000000000000000000000000000000000000000000027bffffffffffffffffffffffffffffffffffffffffffffffffffffffff19166107f689898988888080601f01602080910402602001604051908101604052809392919081815260200183838082843750610e47945050505050565b7bffffffffffffffffffffffffffffffffffffffffffffffffffffffff19161461083357506000905060008051602061153283398151915261092a565b600554600654604080517f4b5f297a000000000000000000000000000000000000000000000000000000008152600160a060020a038b81166004830152602482019390935290519190921691634b5f297a9160448083019260209291908290030181600087803b1580156108a657600080fd5b505af11580156108ba573d6000803e3d6000fd5b505050506040513d60208110156108d057600080fd5b505115156109035750600090507f100000000000000000000000000000000000000000000000000000000000000061092a565b50600190507f01000000000000000000000000000000000000000000000000000000000000005b965096945050505050565b6106ae8383836020604051908101604052806000815250610ce1565b600061095b61056a565b821061096657600080fd5b600980548390811061097457fe5b90600052602060002001549050919050565b60008060008311156109ab575060009050600080516020611532833981519152610af4565b6109b53385610de8565b15156109d4575060009050600080516020611532833981519152610af4565b600160a060020a03851615156109fd575060009050600080516020611532833981519152610af4565b600554600654604080517f4b5f297a000000000000000000000000000000000000000000000000000000008152600160a060020a038981166004830152602482019390935290519190921691634b5f297a9160448083019260209291908290030181600087803b158015610a7057600080fd5b505af1158015610a84573d6000803e3d6000fd5b505050506040513d6020811015610a9a57600080fd5b50511515610acd5750600090507f1000000000000000000000000000000000000000000000000000000000000000610af4565b50600190507f01000000000000000000000000000000000000000000000000000000000000005b94509492505050565b600554600160a060020a031690565b600081815260016020526040812054600160a060020a0316801515610b3057600080fd5b92915050565b6000600160a060020a0382161515610b4d57600080fd5b50600160a060020a031660009081526003602052604090205490565b6000806000831115610b8e575060009050600080516020611532833981519152610af4565b610b983385610de8565b1515610bb7575060009050600080516020611532833981519152610af4565b600160a060020a0385161515610be0575060009050600080516020611532833981519152610af4565b6040805160208101909152600081527f150b7a020000000000000000000000000000000000000000000000000000000090610c2090889088908890610e47565b7bffffffffffffffffffffffffffffffffffffffffffffffffffffffff1916146109fd575060009050600080516020611532833981519152610af4565b600160a060020a038216331415610c7357600080fd5b336000818152600460209081526040808320600160a060020a03871680855290835292819020805460ff1916861515908117909155815190815290519293927f17307eab39ab6107e8899845ad3d59bd9653f200f220920489ca2b5937696c31929181900390910190a35050565b610cec848484610571565b610cf884848484610ff8565b1515610d0357600080fd5b50505050565b600160a060020a03918216600090815260046020908152604080832093909416825291909152205460ff1690565b60065490565b600090815260016020526040902054600160a060020a0316151590565b610d643382610de8565b1515610d6f57600080fd5b600160a060020a0382161515610d8457600080fd5b610d8e838261117a565b610d9883826111eb565b610da282826112f2565b8082600160a060020a031684600160a060020a03167fddf252ad1be2c89b69c2b068fc378daa952ba7f163c4a11628f55a4df523b3ef60405160405180910390a4505050565b600080610df483610b0c565b905080600160a060020a031684600160a060020a03161480610e2f575083600160a060020a0316610e2484610482565b600160a060020a0316145b80610e3f5750610e3f8185610d09565b949350505050565b600060606000610e5f86600160a060020a031661133b565b1515610e8d577f150b7a02000000000000000000000000000000000000000000000000000000009250610fee565b6040513360248201818152600160a060020a038a16604484015260648301889052608060848401908152875160a485015287517f150b7a0200000000000000000000000000000000000000000000000000000000948c938b938b939192909160c490910190602085019080838360005b83811015610f15578181015183820152602001610efd565b50505050905090810190601f168015610f425780820380516001836020036101000a031916815260200191505b5060408051601f198184030181529190526020810180517bffffffffffffffffffffffffffffffffffffffffffffffffffffffff167bffffffffffffffffffffffffffffffffffffffffffffffffffffffff1990991698909817909752509496506127109450505050505a10610fbc576113885a03610fbe565b5a5b90508160200182516040516000815260208183858c88fa8060018114610fe357610fe8565b825197505b50505050505b5050949350505050565b60008061100d85600160a060020a031661133b565b151561101c5760019150611171565b6040517f150b7a020000000000000000000000000000000000000000000000000000000081523360048201818152600160a060020a03898116602485015260448401889052608060648501908152875160848601528751918a169463150b7a0294938c938b938b93909160a490910190602085019080838360005b838110156110af578181015183820152602001611097565b50505050905090810190601f1680156110dc5780820380516001836020036101000a031916815260200191505b5095505050505050602060405180830381600087803b1580156110fe57600080fd5b505af1158015611112573d6000803e3d6000fd5b505050506040513d602081101561112857600080fd5b50517bffffffffffffffffffffffffffffffffffffffffffffffffffffffff1981167f150b7a020000000000000000000000000000000000000000000000000000000014925090505b50949350505050565b81600160a060020a031661118d82610b0c565b600160a060020a0316146111a057600080fd5b600081815260026020526040902054600160a060020a0316156111e7576000818152600260205260409020805473ffffffffffffffffffffffffffffffffffffffff191690555b5050565b60008060006111fa8585611343565b600084815260086020908152604080832054600160a060020a038916845260079092529091205490935061123590600163ffffffff6113d916565b600160a060020a03861660009081526007602052604090208054919350908390811061125d57fe5b90600052602060002001549050806007600087600160a060020a0316600160a060020a031681526020019081526020016000208481548110151561129d57fe5b6000918252602080832090910192909255600160a060020a03871681526007909152604090208054906112d4906000198301611499565b50600093845260086020526040808520859055908452909220555050565b60006112fe83836113f0565b50600160a060020a039091166000908152600760209081526040808320805460018101825590845282842081018590559383526008909152902055565b6000903b1190565b81600160a060020a031661135682610b0c565b600160a060020a03161461136957600080fd5b600160a060020a03821660009081526003602052604090205461139390600163ffffffff6113d916565b600160a060020a03909216600090815260036020908152604080832094909455918152600190915220805473ffffffffffffffffffffffffffffffffffffffff19169055565b600080838311156113e957600080fd5b5050900390565b600081815260016020526040902054600160a060020a03161561141257600080fd5b6000818152600160208181526040808420805473ffffffffffffffffffffffffffffffffffffffff1916600160a060020a038816908117909155845260039091529091205461146091611480565b600160a060020a0390921660009081526003602052604090209190915550565b60008282018381101561149257600080fd5b9392505050565b8154818355818111156106ae576000838152602090206106ae91810190830161056e91905b808211156114d257600081556001016114be565b5090565b600160a060020a03821615156114eb57600080fd5b6114f582826112f2565b6040518190600160a060020a038416906000907fddf252ad1be2c89b69c2b068fc378daa952ba7f163c4a11628f55a4df523b3ef908290a450505600a000000000000000000000000000000000000000000000000000000000000000a165627a7a72305820e4df505c46e5f014d7bb2294a310ce5fc14975f5eb19ff012a11f2e0692f23040029",
  "source": "pragma solidity ^0.4.25;\n\nimport \"openzeppelin-solidity/contracts/token/ERC721/ERC721Enumerable.sol\";\nimport \"../examples/token/ERC721/TPLERC721Permissioned.sol\";\nimport \"../AttributeRegistryInterface.sol\";\n\n\n/**\n * @title An instance of TPLERC721Permissioned with an initial token.\n */\ncontract TPLERC721PermissionedInstance is TPLERC721Permissioned, ERC721Enumerable {\n  /**\n  * @notice The constructor function, with an associated attribute registry at\n  * `registry`, an assignable attribute type with ID `validAttributeTypeID`, and\n  * an initial NFT assigned to the creator.\n  * @param registry address The account of the associated attribute registry.  \n  * @param validAttributeTypeID uint256 The ID of the required attribute type.\n  * @dev Note that it may be appropriate to require that the referenced\n  * attribute registry supports the correct interface via EIP-165.\n  */\n  constructor(\n    AttributeRegistryInterface registry,\n    uint256 validAttributeTypeID\n  ) public TPLERC721Permissioned(registry, validAttributeTypeID) {\n    _mockMint();\n  }\n\n  function _mockMint() internal {\n    uint256 tokenId = uint256(\n      keccak256(\n        abi.encodePacked(\n          msg.sender,\n          blockhash(block.number - 1)\n        )\n      )\n    );\n\n    _mint(msg.sender, tokenId);\n  }\n}",
  "sourcePath": "/Users/jretina/Programming/PROPSProject/tpl-contracts/contracts/mock/TPLERC721PermissionedInstance.sol",
  "compiler": {
    "name": "solc",
    "version": "0.4.25+commit.59dbf8f1.Emscripten.clang"
  },
  "schemaVersion": "3.0.0-beta.1",
  "updatedAt": "2019-01-09T15:27:56.381Z"
}